{"contracts/nftMarketPlace.sol":{"NftMarketplace":{"abi":[{"inputs":[{"internalType":"address","name":"nftAddress","type":"address"},{"internalType":"uint256","name":"tokenId","type":"uint256"}],"name":"AlreadyListed","type":"error"},{"inputs":[],"name":"NoProceeds","type":"error"},{"inputs":[],"name":"NotApprovedForMarketplace","type":"error"},{"inputs":[{"internalType":"address","name":"nftAddress","type":"address"},{"internalType":"uint256","name":"tokenId","type":"uint256"}],"name":"NotListed","type":"error"},{"inputs":[],"name":"NotOwner","type":"error"},{"inputs":[],"name":"PriceMustBeAboveZero","type":"error"},{"inputs":[{"internalType":"address","name":"nftAddress","type":"address"},{"internalType":"uint256","name":"tokenId","type":"uint256"},{"internalType":"uint256","name":"price","type":"uint256"}],"name":"PriceNotMet","type":"error"},{"anonymous":false,"inputs":[{"indexed":true,"internalType":"string","name":"buyer","type":"string"},{"indexed":true,"internalType":"address","name":"nftAddress","type":"address"},{"indexed":true,"internalType":"uint256","name":"tokenId","type":"uint256"},{"indexed":false,"internalType":"uint256","name":"price","type":"uint256"}],"name":"ItemBought","type":"event"},{"anonymous":false,"inputs":[{"indexed":true,"internalType":"string","name":"seller","type":"string"},{"indexed":true,"internalType":"address","name":"nftAddress","type":"address"},{"indexed":true,"internalType":"uint256","name":"tokenId","type":"uint256"}],"name":"ItemCanceled","type":"event"},{"anonymous":false,"inputs":[{"indexed":true,"internalType":"string","name":"seller","type":"string"},{"indexed":true,"internalType":"address","name":"nftAddress","type":"address"},{"indexed":true,"internalType":"uint256","name":"tokenId","type":"uint256"},{"indexed":false,"internalType":"uint256","name":"price","type":"uint256"}],"name":"ItemListed","type":"event"},{"inputs":[{"internalType":"address","name":"nftAddress","type":"address"},{"internalType":"uint256","name":"tokenId","type":"uint256"},{"internalType":"string","name":"nul","type":"string"}],"name":"buyItem","outputs":[],"stateMutability":"payable","type":"function"},{"inputs":[{"internalType":"address","name":"nftAddress","type":"address"},{"internalType":"uint256","name":"tokenId","type":"uint256"},{"internalType":"string","name":"nul","type":"string"}],"name":"cancelListing","outputs":[],"stateMutability":"nonpayable","type":"function"},{"inputs":[{"internalType":"address","name":"nftAddress","type":"address"},{"internalType":"uint256","name":"tokenId","type":"uint256"}],"name":"getListing","outputs":[{"components":[{"internalType":"uint256","name":"price","type":"uint256"},{"internalType":"string","name":"seller","type":"string"}],"internalType":"struct NftMarketplace.Listing","name":"","type":"tuple"}],"stateMutability":"view","type":"function"},{"inputs":[{"internalType":"string","name":"sellerNul","type":"string"}],"name":"getProceeds","outputs":[{"internalType":"uint256","name":"","type":"uint256"}],"stateMutability":"view","type":"function"},{"inputs":[{"internalType":"address","name":"nftAddress","type":"address"},{"internalType":"uint256","name":"tokenId","type":"uint256"},{"internalType":"uint256","name":"price","type":"uint256"},{"internalType":"string","name":"nul","type":"string"}],"name":"listItem","outputs":[],"stateMutability":"nonpayable","type":"function"},{"inputs":[{"internalType":"address","name":"nftAddress","type":"address"},{"internalType":"uint256","name":"tokenId","type":"uint256"},{"internalType":"uint256","name":"newPrice","type":"uint256"},{"internalType":"string","name":"nul","type":"string"}],"name":"updateListing","outputs":[],"stateMutability":"nonpayable","type":"function"},{"inputs":[{"internalType":"string","name":"nul","type":"string"}],"name":"withdrawProceeds","outputs":[],"stateMutability":"nonpayable","type":"function"}],"devdoc":{"kind":"dev","methods":{},"version":1},"evm":{"bytecode":{"linkReferences":{},"object":"608060405234801561001057600080fd5b506001600081905550611de4806100286000396000f3fe6080604052600436106100705760003560e01c806388700d1c1161004e57806388700d1c146100e3578063a97ce3c214610120578063b3a8986114610149578063e6d5ce551461018657610070565b80633c5d352b146100755780635095709e146100915780635b0d9d9b146100ba575b600080fd5b61008f600480360381019061008a9190611668565b6101af565b005b34801561009d57600080fd5b506100b860048036038101906100b391906116d7565b6105d8565b005b3480156100c657600080fd5b506100e160048036038101906100dc91906116d7565b610a6f565b005b3480156100ef57600080fd5b5061010a60048036038101906101059190611628565b610deb565b6040516101179190611a2e565b60405180910390f35b34801561012c57600080fd5b506101476004803603810190610142919061175a565b610ef2565b005b34801561015557600080fd5b50610170600480360381019061016b919061175a565b611024565b60405161017d9190611a50565b60405180910390f35b34801561019257600080fd5b506101ad60048036038101906101a89190611668565b61104c565b005b82826000600160008473ffffffffffffffffffffffffffffffffffffffff1673ffffffffffffffffffffffffffffffffffffffff16815260200190815260200160002060008381526020019081526020016000206040518060400160405290816000820154815260200160018201805461022890611c16565b80601f016020809104026020016040519081016040528092919081815260200182805461025490611c16565b80156102a15780601f10610276576101008083540402835291602001916102a1565b820191906000526020600020905b81548152906001019060200180831161028457829003601f168201915b505050505081525050905060008160000151116102f75782826040517f6831488c0000000000000000000000000000000000000000000000000000000081526004016102ee92919061198e565b60405180910390fd5b6102ff611385565b6000600160008873ffffffffffffffffffffffffffffffffffffffff1673ffffffffffffffffffffffffffffffffffffffff16815260200190815260200160002060008781526020019081526020016000206040518060400160405290816000820154815260200160018201805461037690611c16565b80601f01602080910402602001604051908101604052809291908181526020018280546103a290611c16565b80156103ef5780601f106103c4576101008083540402835291602001916103ef565b820191906000526020600020905b8154815290600101906020018083116103d257829003601f168201915b5050505050815250509050806000015134101561044b57868682600001516040517f7c934565000000000000000000000000000000000000000000000000000000008152600401610442939291906119b7565b60405180910390fd5b34600282602001516040516104609190611962565b9081526020016040518091039020600082825461047d9190611b42565b92505081905550600160008873ffffffffffffffffffffffffffffffffffffffff1673ffffffffffffffffffffffffffffffffffffffff16815260200190815260200160002060008781526020019081526020016000206000808201600090556001820160006104ed91906113df565b50508673ffffffffffffffffffffffffffffffffffffffff166311eb6a6b8787336040518463ffffffff1660e01b815260040161052c93929190611a6b565b600060405180830381600087803b15801561054657600080fd5b505af115801561055a573d6000803e3d6000fd5b50505050858773ffffffffffffffffffffffffffffffffffffffff16866040516105849190611962565b60405180910390207f109617ae15899087bebf7009a690ee879f8ab01d1fa1115bf04c3821fbeba37984600001516040516105bf9190611a50565b60405180910390a4506105d06113d5565b505050505050565b83836000600160008473ffffffffffffffffffffffffffffffffffffffff1673ffffffffffffffffffffffffffffffffffffffff16815260200190815260200160002060008381526020019081526020016000206040518060400160405290816000820154815260200160018201805461065190611c16565b80601f016020809104026020016040519081016040528092919081815260200182805461067d90611c16565b80156106ca5780601f1061069f576101008083540402835291602001916106ca565b820191906000526020600020905b8154815290600101906020018083116106ad57829003601f168201915b50505050508152505090506000816000015111156107215782826040517f4a5568d500000000000000000000000000000000000000000000000000000000815260040161071892919061198e565b60405180910390fd5b868685600083905060008173ffffffffffffffffffffffffffffffffffffffff16636352211e856040518263ffffffff1660e01b81526004016107649190611a50565b60006040518083038186803b15801561077c57600080fd5b505afa158015610790573d6000803e3d6000fd5b505050506040513d6000823e3d601f19601f820116820180604052508101906107b991906117a3565b9050806040516020016107cc9190611962565b60405160208183030381529060405280519060200120836040516020016107f39190611962565b6040516020818303038152906040528051906020012014610840576040517f30cd747100000000000000000000000000000000000000000000000000000000815260040160405180910390fd5b60008a1161087a576040517fe1abbfc500000000000000000000000000000000000000000000000000000000815260040160405180910390fd5b60008c90503073ffffffffffffffffffffffffffffffffffffffff168173ffffffffffffffffffffffffffffffffffffffff1663d78092528e6040518263ffffffff1660e01b81526004016108cf9190611a50565b60206040518083038186803b1580156108e757600080fd5b505afa1580156108fb573d6000803e3d6000fd5b505050506040513d601f19601f8201168201806040525081019061091f91906115fb565b73ffffffffffffffffffffffffffffffffffffffff161461096c576040517f4be3a2c500000000000000000000000000000000000000000000000000000000815260040160405180910390fd5b60405180604001604052808c81526020018b815250600160008f73ffffffffffffffffffffffffffffffffffffffff1673ffffffffffffffffffffffffffffffffffffffff16815260200190815260200160002060008e81526020019081526020016000206000820151816000015560208201518160010190805190602001906109f792919061141f565b509050508b8d73ffffffffffffffffffffffffffffffffffffffff168b604051610a219190611962565b60405180910390207f3d51a95276a8cfd6489223082d100f5a832a5e5363e06326cc478e86ee2b24dc8e604051610a589190611a50565b60405180910390a450505050505050505050505050565b83836000600160008473ffffffffffffffffffffffffffffffffffffffff1673ffffffffffffffffffffffffffffffffffffffff168152602001908152602001600020600083815260200190815260200160002060405180604001604052908160008201548152602001600182018054610ae890611c16565b80601f0160208091040260200160405190810160405280929190818152602001828054610b1490611c16565b8015610b615780601f10610b3657610100808354040283529160200191610b61565b820191906000526020600020905b815481529060010190602001808311610b4457829003601f168201915b50505050508152505090506000816000015111610bb75782826040517f6831488c000000000000000000000000000000000000000000000000000000008152600401610bae92919061198e565b60405180910390fd5b610bbf611385565b868685600083905060008173ffffffffffffffffffffffffffffffffffffffff16636352211e856040518263ffffffff1660e01b8152600401610c029190611a50565b60006040518083038186803b158015610c1a57600080fd5b505afa158015610c2e573d6000803e3d6000fd5b505050506040513d6000823e3d601f19601f82011682018060405250810190610c5791906117a3565b905080604051602001610c6a9190611962565b6040516020818303038152906040528051906020012083604051602001610c919190611962565b6040516020818303038152906040528051906020012014610cde576040517f30cd747100000000000000000000000000000000000000000000000000000000815260040160405180910390fd5b60008a11610d18576040517fe1abbfc500000000000000000000000000000000000000000000000000000000815260040160405180910390fd5b89600160008e73ffffffffffffffffffffffffffffffffffffffff1673ffffffffffffffffffffffffffffffffffffffff16815260200190815260200160002060008d8152602001908152602001600020600001819055508a8c73ffffffffffffffffffffffffffffffffffffffff168a604051610d969190611962565b60405180910390207f3d51a95276a8cfd6489223082d100f5a832a5e5363e06326cc478e86ee2b24dc8d604051610dcd9190611a50565b60405180910390a45050505050610de26113d5565b50505050505050565b610df36114a5565b600160008473ffffffffffffffffffffffffffffffffffffffff1673ffffffffffffffffffffffffffffffffffffffff168152602001908152602001600020600083815260200190815260200160002060405180604001604052908160008201548152602001600182018054610e6890611c16565b80601f0160208091040260200160405190810160405280929190818152602001828054610e9490611c16565b8015610ee15780601f10610eb657610100808354040283529160200191610ee1565b820191906000526020600020905b815481529060010190602001808311610ec457829003601f168201915b505050505081525050905092915050565b6000600282604051610f049190611962565b908152602001604051809103902054905060008111610f4f576040517fc4d8fa8700000000000000000000000000000000000000000000000000000000815260040160405180910390fd5b6000600283604051610f619190611962565b90815260200160405180910390208190555060003373ffffffffffffffffffffffffffffffffffffffff1682604051610f9990611979565b60006040518083038185875af1925050503d8060008114610fd6576040519150601f19603f3d011682016040523d82523d6000602084013e610fdb565b606091505b505090508061101f576040517f08c379a0000000000000000000000000000000000000000000000000000000008152600401611016906119ee565b60405180910390fd5b505050565b60006002826040516110369190611962565b9081526020016040518091039020549050919050565b828282600083905060008173ffffffffffffffffffffffffffffffffffffffff16636352211e856040518263ffffffff1660e01b815260040161108f9190611a50565b60006040518083038186803b1580156110a757600080fd5b505afa1580156110bb573d6000803e3d6000fd5b505050506040513d6000823e3d601f19601f820116820180604052508101906110e491906117a3565b9050806040516020016110f79190611962565b604051602081830303815290604052805190602001208360405160200161111e9190611962565b604051602081830303815290604052805190602001201461116b576040517f30cd747100000000000000000000000000000000000000000000000000000000815260040160405180910390fd5b87876000600160008473ffffffffffffffffffffffffffffffffffffffff1673ffffffffffffffffffffffffffffffffffffffff1681526020019081526020016000206000838152602001908152602001600020604051806040016040529081600082015481526020016001820180546111e490611c16565b80601f016020809104026020016040519081016040528092919081815260200182805461121090611c16565b801561125d5780601f106112325761010080835404028352916020019161125d565b820191906000526020600020905b81548152906001019060200180831161124057829003601f168201915b505050505081525050905060008160000151116112b35782826040517f6831488c0000000000000000000000000000000000000000000000000000000081526004016112aa92919061198e565b60405180910390fd5b600160008c73ffffffffffffffffffffffffffffffffffffffff1673ffffffffffffffffffffffffffffffffffffffff16815260200190815260200160002060008b815260200190815260200160002060008082016000905560018201600061131c91906113df565b5050898b73ffffffffffffffffffffffffffffffffffffffff168a6040516113449190611962565b60405180910390207f98aa7f63f9d2537e9815212bf2dc15c3e24fc2b9ab046b8ba1b0299b24ecac3c60405160405180910390a45050505050505050505050565b600260005414156113cb576040517f08c379a00000000000000000000000000000000000000000000000000000000081526004016113c290611a0e565b60405180910390fd5b6002600081905550565b6001600081905550565b5080546113eb90611c16565b6000825580601f106113fd575061141c565b601f01602090049060005260206000209081019061141b91906114bf565b5b50565b82805461142b90611c16565b90600052602060002090601f01602090048101928261144d5760008555611494565b82601f1061146657805160ff1916838001178555611494565b82800160010185558215611494579182015b82811115611493578251825591602001919060010190611478565b5b5090506114a191906114bf565b5090565b604051806040016040528060008152602001606081525090565b5b808211156114d85760008160009055506001016114c0565b5090565b60006114ef6114ea84611ace565b611aa9565b90508281526020810184848401111561150b5761150a611d0b565b5b611516848285611bd4565b509392505050565b600061153161152c84611ace565b611aa9565b90508281526020810184848401111561154d5761154c611d0b565b5b611558848285611be3565b509392505050565b60008135905061156f81611d80565b92915050565b60008151905061158481611d80565b92915050565b600082601f83011261159f5761159e611d06565b5b81356115af8482602086016114dc565b91505092915050565b600082601f8301126115cd576115cc611d06565b5b81516115dd84826020860161151e565b91505092915050565b6000813590506115f581611d97565b92915050565b60006020828403121561161157611610611d15565b5b600061161f84828501611575565b91505092915050565b6000806040838503121561163f5761163e611d15565b5b600061164d85828601611560565b925050602061165e858286016115e6565b9150509250929050565b60008060006060848603121561168157611680611d15565b5b600061168f86828701611560565b93505060206116a0868287016115e6565b925050604084013567ffffffffffffffff8111156116c1576116c0611d10565b5b6116cd8682870161158a565b9150509250925092565b600080600080608085870312156116f1576116f0611d15565b5b60006116ff87828801611560565b9450506020611710878288016115e6565b9350506040611721878288016115e6565b925050606085013567ffffffffffffffff81111561174257611741611d10565b5b61174e8782880161158a565b91505092959194509250565b6000602082840312156117705761176f611d15565b5b600082013567ffffffffffffffff81111561178e5761178d611d10565b5b61179a8482850161158a565b91505092915050565b6000602082840312156117b9576117b8611d15565b5b600082015167ffffffffffffffff8111156117d7576117d6611d10565b5b6117e3848285016115b8565b91505092915050565b6117f581611b98565b82525050565b600061180682611aff565b6118108185611b15565b9350611820818560208601611be3565b61182981611d1a565b840191505092915050565b600061183f82611aff565b6118498185611b26565b9350611859818560208601611be3565b61186281611d1a565b840191505092915050565b600061187882611aff565b6118828185611b37565b9350611892818560208601611be3565b80840191505092915050565b60006118ab600f83611b26565b91506118b682611d2b565b602082019050919050565b60006118ce600083611b0a565b91506118d982611d54565b600082019050919050565b60006118f1601f83611b26565b91506118fc82611d57565b602082019050919050565b600060408301600083015161191f6000860182611944565b506020830151848203602086015261193782826117fb565b9150508091505092915050565b61194d81611bca565b82525050565b61195c81611bca565b82525050565b600061196e828461186d565b915081905092915050565b6000611984826118c1565b9150819050919050565b60006040820190506119a360008301856117ec565b6119b06020830184611953565b9392505050565b60006060820190506119cc60008301866117ec565b6119d96020830185611953565b6119e66040830184611953565b949350505050565b60006020820190508181036000830152611a078161189e565b9050919050565b60006020820190508181036000830152611a27816118e4565b9050919050565b60006020820190508181036000830152611a488184611907565b905092915050565b6000602082019050611a656000830184611953565b92915050565b6000606082019050611a806000830186611953565b8181036020830152611a928185611834565b9050611aa160408301846117ec565b949350505050565b6000611ab3611ac4565b9050611abf8282611c48565b919050565b6000604051905090565b600067ffffffffffffffff821115611ae957611ae8611cd7565b5b611af282611d1a565b9050602081019050919050565b600081519050919050565b600081905092915050565b600082825260208201905092915050565b600082825260208201905092915050565b600081905092915050565b6000611b4d82611bca565b9150611b5883611bca565b9250827fffffffffffffffffffffffffffffffffffffffffffffffffffffffffffffffff03821115611b8d57611b8c611c79565b5b828201905092915050565b6000611ba382611baa565b9050919050565b600073ffffffffffffffffffffffffffffffffffffffff82169050919050565b6000819050919050565b82818337600083830152505050565b60005b83811015611c01578082015181840152602081019050611be6565b83811115611c10576000848401525b50505050565b60006002820490506001821680611c2e57607f821691505b60208210811415611c4257611c41611ca8565b5b50919050565b611c5182611d1a565b810181811067ffffffffffffffff82111715611c7057611c6f611cd7565b5b80604052505050565b7f4e487b7100000000000000000000000000000000000000000000000000000000600052601160045260246000fd5b7f4e487b7100000000000000000000000000000000000000000000000000000000600052602260045260246000fd5b7f4e487b7100000000000000000000000000000000000000000000000000000000600052604160045260246000fd5b600080fd5b600080fd5b600080fd5b600080fd5b6000601f19601f8301169050919050565b7f5472616e73666572206661696c65640000000000000000000000000000000000600082015250565b50565b7f5265656e7472616e637947756172643a207265656e7472616e742063616c6c00600082015250565b611d8981611b98565b8114611d9457600080fd5b50565b611da081611bca565b8114611dab57600080fd5b5056fea2646970667358221220056c2a52899470400cdd3f458a06113e0de9d012fabb7cd1559097afc169259d64736f6c63430008070033","opcodes":"PUSH1 0x80 PUSH1 0x40 MSTORE CALLVALUE DUP1 ISZERO PUSH2 0x10 JUMPI PUSH1 0x0 DUP1 REVERT JUMPDEST POP PUSH1 0x1 PUSH1 0x0 DUP2 SWAP1 SSTORE POP PUSH2 0x1DE4 DUP1 PUSH2 0x28 PUSH1 0x0 CODECOPY PUSH1 0x0 RETURN INVALID PUSH1 0x80 PUSH1 0x40 MSTORE PUSH1 0x4 CALLDATASIZE LT PUSH2 0x70 JUMPI PUSH1 0x0 CALLDATALOAD PUSH1 0xE0 SHR DUP1 PUSH4 0x88700D1C GT PUSH2 0x4E JUMPI DUP1 PUSH4 0x88700D1C EQ PUSH2 0xE3 JUMPI DUP1 PUSH4 0xA97CE3C2 EQ PUSH2 0x120 JUMPI DUP1 PUSH4 0xB3A89861 EQ PUSH2 0x149 JUMPI DUP1 PUSH4 0xE6D5CE55 EQ PUSH2 0x186 JUMPI PUSH2 0x70 JUMP JUMPDEST DUP1 PUSH4 0x3C5D352B EQ PUSH2 0x75 JUMPI DUP1 PUSH4 0x5095709E EQ PUSH2 0x91 JUMPI DUP1 PUSH4 0x5B0D9D9B EQ PUSH2 0xBA JUMPI JUMPDEST PUSH1 0x0 DUP1 REVERT JUMPDEST PUSH2 0x8F PUSH1 0x4 DUP1 CALLDATASIZE SUB DUP2 ADD SWAP1 PUSH2 0x8A SWAP2 SWAP1 PUSH2 0x1668 JUMP JUMPDEST PUSH2 0x1AF JUMP JUMPDEST STOP JUMPDEST CALLVALUE DUP1 ISZERO PUSH2 0x9D JUMPI PUSH1 0x0 DUP1 REVERT JUMPDEST POP PUSH2 0xB8 PUSH1 0x4 DUP1 CALLDATASIZE SUB DUP2 ADD SWAP1 PUSH2 0xB3 SWAP2 SWAP1 PUSH2 0x16D7 JUMP JUMPDEST PUSH2 0x5D8 JUMP JUMPDEST STOP JUMPDEST CALLVALUE DUP1 ISZERO PUSH2 0xC6 JUMPI PUSH1 0x0 DUP1 REVERT JUMPDEST POP PUSH2 0xE1 PUSH1 0x4 DUP1 CALLDATASIZE SUB DUP2 ADD SWAP1 PUSH2 0xDC SWAP2 SWAP1 PUSH2 0x16D7 JUMP JUMPDEST PUSH2 0xA6F JUMP JUMPDEST STOP JUMPDEST CALLVALUE DUP1 ISZERO PUSH2 0xEF JUMPI PUSH1 0x0 DUP1 REVERT JUMPDEST POP PUSH2 0x10A PUSH1 0x4 DUP1 CALLDATASIZE SUB DUP2 ADD SWAP1 PUSH2 0x105 SWAP2 SWAP1 PUSH2 0x1628 JUMP JUMPDEST PUSH2 0xDEB JUMP JUMPDEST PUSH1 0x40 MLOAD PUSH2 0x117 SWAP2 SWAP1 PUSH2 0x1A2E JUMP JUMPDEST PUSH1 0x40 MLOAD DUP1 SWAP2 SUB SWAP1 RETURN JUMPDEST CALLVALUE DUP1 ISZERO PUSH2 0x12C JUMPI PUSH1 0x0 DUP1 REVERT JUMPDEST POP PUSH2 0x147 PUSH1 0x4 DUP1 CALLDATASIZE SUB DUP2 ADD SWAP1 PUSH2 0x142 SWAP2 SWAP1 PUSH2 0x175A JUMP JUMPDEST PUSH2 0xEF2 JUMP JUMPDEST STOP JUMPDEST CALLVALUE DUP1 ISZERO PUSH2 0x155 JUMPI PUSH1 0x0 DUP1 REVERT JUMPDEST POP PUSH2 0x170 PUSH1 0x4 DUP1 CALLDATASIZE SUB DUP2 ADD SWAP1 PUSH2 0x16B SWAP2 SWAP1 PUSH2 0x175A JUMP JUMPDEST PUSH2 0x1024 JUMP JUMPDEST PUSH1 0x40 MLOAD PUSH2 0x17D SWAP2 SWAP1 PUSH2 0x1A50 JUMP JUMPDEST PUSH1 0x40 MLOAD DUP1 SWAP2 SUB SWAP1 RETURN JUMPDEST CALLVALUE DUP1 ISZERO PUSH2 0x192 JUMPI PUSH1 0x0 DUP1 REVERT JUMPDEST POP PUSH2 0x1AD PUSH1 0x4 DUP1 CALLDATASIZE SUB DUP2 ADD SWAP1 PUSH2 0x1A8 SWAP2 SWAP1 PUSH2 0x1668 JUMP JUMPDEST PUSH2 0x104C JUMP JUMPDEST STOP JUMPDEST DUP3 DUP3 PUSH1 0x0 PUSH1 0x1 PUSH1 0x0 DUP5 PUSH20 0xFFFFFFFFFFFFFFFFFFFFFFFFFFFFFFFFFFFFFFFF AND PUSH20 0xFFFFFFFFFFFFFFFFFFFFFFFFFFFFFFFFFFFFFFFF AND DUP2 MSTORE PUSH1 0x20 ADD SWAP1 DUP2 MSTORE PUSH1 0x20 ADD PUSH1 0x0 KECCAK256 PUSH1 0x0 DUP4 DUP2 MSTORE PUSH1 0x20 ADD SWAP1 DUP2 MSTORE PUSH1 0x20 ADD PUSH1 0x0 KECCAK256 PUSH1 0x40 MLOAD DUP1 PUSH1 0x40 ADD PUSH1 0x40 MSTORE SWAP1 DUP2 PUSH1 0x0 DUP3 ADD SLOAD DUP2 MSTORE PUSH1 0x20 ADD PUSH1 0x1 DUP3 ADD DUP1 SLOAD PUSH2 0x228 SWAP1 PUSH2 0x1C16 JUMP JUMPDEST DUP1 PUSH1 0x1F ADD PUSH1 0x20 DUP1 SWAP2 DIV MUL PUSH1 0x20 ADD PUSH1 0x40 MLOAD SWAP1 DUP2 ADD PUSH1 0x40 MSTORE DUP1 SWAP3 SWAP2 SWAP1 DUP2 DUP2 MSTORE PUSH1 0x20 ADD DUP3 DUP1 SLOAD PUSH2 0x254 SWAP1 PUSH2 0x1C16 JUMP JUMPDEST DUP1 ISZERO PUSH2 0x2A1 JUMPI DUP1 PUSH1 0x1F LT PUSH2 0x276 JUMPI PUSH2 0x100 DUP1 DUP4 SLOAD DIV MUL DUP4 MSTORE SWAP2 PUSH1 0x20 ADD SWAP2 PUSH2 0x2A1 JUMP JUMPDEST DUP3 ADD SWAP2 SWAP1 PUSH1 0x0 MSTORE PUSH1 0x20 PUSH1 0x0 KECCAK256 SWAP1 JUMPDEST DUP2 SLOAD DUP2 MSTORE SWAP1 PUSH1 0x1 ADD SWAP1 PUSH1 0x20 ADD DUP1 DUP4 GT PUSH2 0x284 JUMPI DUP3 SWAP1 SUB PUSH1 0x1F AND DUP3 ADD SWAP2 JUMPDEST POP POP POP POP POP DUP2 MSTORE POP POP SWAP1 POP PUSH1 0x0 DUP2 PUSH1 0x0 ADD MLOAD GT PUSH2 0x2F7 JUMPI DUP3 DUP3 PUSH1 0x40 MLOAD PUSH32 0x6831488C00000000000000000000000000000000000000000000000000000000 DUP2 MSTORE PUSH1 0x4 ADD PUSH2 0x2EE SWAP3 SWAP2 SWAP1 PUSH2 0x198E JUMP JUMPDEST PUSH1 0x40 MLOAD DUP1 SWAP2 SUB SWAP1 REVERT JUMPDEST PUSH2 0x2FF PUSH2 0x1385 JUMP JUMPDEST PUSH1 0x0 PUSH1 0x1 PUSH1 0x0 DUP9 PUSH20 0xFFFFFFFFFFFFFFFFFFFFFFFFFFFFFFFFFFFFFFFF AND PUSH20 0xFFFFFFFFFFFFFFFFFFFFFFFFFFFFFFFFFFFFFFFF AND DUP2 MSTORE PUSH1 0x20 ADD SWAP1 DUP2 MSTORE PUSH1 0x20 ADD PUSH1 0x0 KECCAK256 PUSH1 0x0 DUP8 DUP2 MSTORE PUSH1 0x20 ADD SWAP1 DUP2 MSTORE PUSH1 0x20 ADD PUSH1 0x0 KECCAK256 PUSH1 0x40 MLOAD DUP1 PUSH1 0x40 ADD PUSH1 0x40 MSTORE SWAP1 DUP2 PUSH1 0x0 DUP3 ADD SLOAD DUP2 MSTORE PUSH1 0x20 ADD PUSH1 0x1 DUP3 ADD DUP1 SLOAD PUSH2 0x376 SWAP1 PUSH2 0x1C16 JUMP JUMPDEST DUP1 PUSH1 0x1F ADD PUSH1 0x20 DUP1 SWAP2 DIV MUL PUSH1 0x20 ADD PUSH1 0x40 MLOAD SWAP1 DUP2 ADD PUSH1 0x40 MSTORE DUP1 SWAP3 SWAP2 SWAP1 DUP2 DUP2 MSTORE PUSH1 0x20 ADD DUP3 DUP1 SLOAD PUSH2 0x3A2 SWAP1 PUSH2 0x1C16 JUMP JUMPDEST DUP1 ISZERO PUSH2 0x3EF JUMPI DUP1 PUSH1 0x1F LT PUSH2 0x3C4 JUMPI PUSH2 0x100 DUP1 DUP4 SLOAD DIV MUL DUP4 MSTORE SWAP2 PUSH1 0x20 ADD SWAP2 PUSH2 0x3EF JUMP JUMPDEST DUP3 ADD SWAP2 SWAP1 PUSH1 0x0 MSTORE PUSH1 0x20 PUSH1 0x0 KECCAK256 SWAP1 JUMPDEST DUP2 SLOAD DUP2 MSTORE SWAP1 PUSH1 0x1 ADD SWAP1 PUSH1 0x20 ADD DUP1 DUP4 GT PUSH2 0x3D2 JUMPI DUP3 SWAP1 SUB PUSH1 0x1F AND DUP3 ADD SWAP2 JUMPDEST POP POP POP POP POP DUP2 MSTORE POP POP SWAP1 POP DUP1 PUSH1 0x0 ADD MLOAD CALLVALUE LT ISZERO PUSH2 0x44B JUMPI DUP7 DUP7 DUP3 PUSH1 0x0 ADD MLOAD PUSH1 0x40 MLOAD PUSH32 0x7C93456500000000000000000000000000000000000000000000000000000000 DUP2 MSTORE PUSH1 0x4 ADD PUSH2 0x442 SWAP4 SWAP3 SWAP2 SWAP1 PUSH2 0x19B7 JUMP JUMPDEST PUSH1 0x40 MLOAD DUP1 SWAP2 SUB SWAP1 REVERT JUMPDEST CALLVALUE PUSH1 0x2 DUP3 PUSH1 0x20 ADD MLOAD PUSH1 0x40 MLOAD PUSH2 0x460 SWAP2 SWAP1 PUSH2 0x1962 JUMP JUMPDEST SWAP1 DUP2 MSTORE PUSH1 0x20 ADD PUSH1 0x40 MLOAD DUP1 SWAP2 SUB SWAP1 KECCAK256 PUSH1 0x0 DUP3 DUP3 SLOAD PUSH2 0x47D SWAP2 SWAP1 PUSH2 0x1B42 JUMP JUMPDEST SWAP3 POP POP DUP2 SWAP1 SSTORE POP PUSH1 0x1 PUSH1 0x0 DUP9 PUSH20 0xFFFFFFFFFFFFFFFFFFFFFFFFFFFFFFFFFFFFFFFF AND PUSH20 0xFFFFFFFFFFFFFFFFFFFFFFFFFFFFFFFFFFFFFFFF AND DUP2 MSTORE PUSH1 0x20 ADD SWAP1 DUP2 MSTORE PUSH1 0x20 ADD PUSH1 0x0 KECCAK256 PUSH1 0x0 DUP8 DUP2 MSTORE PUSH1 0x20 ADD SWAP1 DUP2 MSTORE PUSH1 0x20 ADD PUSH1 0x0 KECCAK256 PUSH1 0x0 DUP1 DUP3 ADD PUSH1 0x0 SWAP1 SSTORE PUSH1 0x1 DUP3 ADD PUSH1 0x0 PUSH2 0x4ED SWAP2 SWAP1 PUSH2 0x13DF JUMP JUMPDEST POP POP DUP7 PUSH20 0xFFFFFFFFFFFFFFFFFFFFFFFFFFFFFFFFFFFFFFFF AND PUSH4 0x11EB6A6B DUP8 DUP8 CALLER PUSH1 0x40 MLOAD DUP5 PUSH4 0xFFFFFFFF AND PUSH1 0xE0 SHL DUP2 MSTORE PUSH1 0x4 ADD PUSH2 0x52C SWAP4 SWAP3 SWAP2 SWAP1 PUSH2 0x1A6B JUMP JUMPDEST PUSH1 0x0 PUSH1 0x40 MLOAD DUP1 DUP4 SUB DUP2 PUSH1 0x0 DUP8 DUP1 EXTCODESIZE ISZERO DUP1 ISZERO PUSH2 0x546 JUMPI PUSH1 0x0 DUP1 REVERT JUMPDEST POP GAS CALL ISZERO DUP1 ISZERO PUSH2 0x55A JUMPI RETURNDATASIZE PUSH1 0x0 DUP1 RETURNDATACOPY RETURNDATASIZE PUSH1 0x0 REVERT JUMPDEST POP POP POP POP DUP6 DUP8 PUSH20 0xFFFFFFFFFFFFFFFFFFFFFFFFFFFFFFFFFFFFFFFF AND DUP7 PUSH1 0x40 MLOAD PUSH2 0x584 SWAP2 SWAP1 PUSH2 0x1962 JUMP JUMPDEST PUSH1 0x40 MLOAD DUP1 SWAP2 SUB SWAP1 KECCAK256 PUSH32 0x109617AE15899087BEBF7009A690EE879F8AB01D1FA1115BF04C3821FBEBA379 DUP5 PUSH1 0x0 ADD MLOAD PUSH1 0x40 MLOAD PUSH2 0x5BF SWAP2 SWAP1 PUSH2 0x1A50 JUMP JUMPDEST PUSH1 0x40 MLOAD DUP1 SWAP2 SUB SWAP1 LOG4 POP PUSH2 0x5D0 PUSH2 0x13D5 JUMP JUMPDEST POP POP POP POP POP POP JUMP JUMPDEST DUP4 DUP4 PUSH1 0x0 PUSH1 0x1 PUSH1 0x0 DUP5 PUSH20 0xFFFFFFFFFFFFFFFFFFFFFFFFFFFFFFFFFFFFFFFF AND PUSH20 0xFFFFFFFFFFFFFFFFFFFFFFFFFFFFFFFFFFFFFFFF AND DUP2 MSTORE PUSH1 0x20 ADD SWAP1 DUP2 MSTORE PUSH1 0x20 ADD PUSH1 0x0 KECCAK256 PUSH1 0x0 DUP4 DUP2 MSTORE PUSH1 0x20 ADD SWAP1 DUP2 MSTORE PUSH1 0x20 ADD PUSH1 0x0 KECCAK256 PUSH1 0x40 MLOAD DUP1 PUSH1 0x40 ADD PUSH1 0x40 MSTORE SWAP1 DUP2 PUSH1 0x0 DUP3 ADD SLOAD DUP2 MSTORE PUSH1 0x20 ADD PUSH1 0x1 DUP3 ADD DUP1 SLOAD PUSH2 0x651 SWAP1 PUSH2 0x1C16 JUMP JUMPDEST DUP1 PUSH1 0x1F ADD PUSH1 0x20 DUP1 SWAP2 DIV MUL PUSH1 0x20 ADD PUSH1 0x40 MLOAD SWAP1 DUP2 ADD PUSH1 0x40 MSTORE DUP1 SWAP3 SWAP2 SWAP1 DUP2 DUP2 MSTORE PUSH1 0x20 ADD DUP3 DUP1 SLOAD PUSH2 0x67D SWAP1 PUSH2 0x1C16 JUMP JUMPDEST DUP1 ISZERO PUSH2 0x6CA JUMPI DUP1 PUSH1 0x1F LT PUSH2 0x69F JUMPI PUSH2 0x100 DUP1 DUP4 SLOAD DIV MUL DUP4 MSTORE SWAP2 PUSH1 0x20 ADD SWAP2 PUSH2 0x6CA JUMP JUMPDEST DUP3 ADD SWAP2 SWAP1 PUSH1 0x0 MSTORE PUSH1 0x20 PUSH1 0x0 KECCAK256 SWAP1 JUMPDEST DUP2 SLOAD DUP2 MSTORE SWAP1 PUSH1 0x1 ADD SWAP1 PUSH1 0x20 ADD DUP1 DUP4 GT PUSH2 0x6AD JUMPI DUP3 SWAP1 SUB PUSH1 0x1F AND DUP3 ADD SWAP2 JUMPDEST POP POP POP POP POP DUP2 MSTORE POP POP SWAP1 POP PUSH1 0x0 DUP2 PUSH1 0x0 ADD MLOAD GT ISZERO PUSH2 0x721 JUMPI DUP3 DUP3 PUSH1 0x40 MLOAD PUSH32 0x4A5568D500000000000000000000000000000000000000000000000000000000 DUP2 MSTORE PUSH1 0x4 ADD PUSH2 0x718 SWAP3 SWAP2 SWAP1 PUSH2 0x198E JUMP JUMPDEST PUSH1 0x40 MLOAD DUP1 SWAP2 SUB SWAP1 REVERT JUMPDEST DUP7 DUP7 DUP6 PUSH1 0x0 DUP4 SWAP1 POP PUSH1 0x0 DUP2 PUSH20 0xFFFFFFFFFFFFFFFFFFFFFFFFFFFFFFFFFFFFFFFF AND PUSH4 0x6352211E DUP6 PUSH1 0x40 MLOAD DUP3 PUSH4 0xFFFFFFFF AND PUSH1 0xE0 SHL DUP2 MSTORE PUSH1 0x4 ADD PUSH2 0x764 SWAP2 SWAP1 PUSH2 0x1A50 JUMP JUMPDEST PUSH1 0x0 PUSH1 0x40 MLOAD DUP1 DUP4 SUB DUP2 DUP7 DUP1 EXTCODESIZE ISZERO DUP1 ISZERO PUSH2 0x77C JUMPI PUSH1 0x0 DUP1 REVERT JUMPDEST POP GAS STATICCALL ISZERO DUP1 ISZERO PUSH2 0x790 JUMPI RETURNDATASIZE PUSH1 0x0 DUP1 RETURNDATACOPY RETURNDATASIZE PUSH1 0x0 REVERT JUMPDEST POP POP POP POP PUSH1 0x40 MLOAD RETURNDATASIZE PUSH1 0x0 DUP3 RETURNDATACOPY RETURNDATASIZE PUSH1 0x1F NOT PUSH1 0x1F DUP3 ADD AND DUP3 ADD DUP1 PUSH1 0x40 MSTORE POP DUP2 ADD SWAP1 PUSH2 0x7B9 SWAP2 SWAP1 PUSH2 0x17A3 JUMP JUMPDEST SWAP1 POP DUP1 PUSH1 0x40 MLOAD PUSH1 0x20 ADD PUSH2 0x7CC SWAP2 SWAP1 PUSH2 0x1962 JUMP JUMPDEST PUSH1 0x40 MLOAD PUSH1 0x20 DUP2 DUP4 SUB SUB DUP2 MSTORE SWAP1 PUSH1 0x40 MSTORE DUP1 MLOAD SWAP1 PUSH1 0x20 ADD KECCAK256 DUP4 PUSH1 0x40 MLOAD PUSH1 0x20 ADD PUSH2 0x7F3 SWAP2 SWAP1 PUSH2 0x1962 JUMP JUMPDEST PUSH1 0x40 MLOAD PUSH1 0x20 DUP2 DUP4 SUB SUB DUP2 MSTORE SWAP1 PUSH1 0x40 MSTORE DUP1 MLOAD SWAP1 PUSH1 0x20 ADD KECCAK256 EQ PUSH2 0x840 JUMPI PUSH1 0x40 MLOAD PUSH32 0x30CD747100000000000000000000000000000000000000000000000000000000 DUP2 MSTORE PUSH1 0x4 ADD PUSH1 0x40 MLOAD DUP1 SWAP2 SUB SWAP1 REVERT JUMPDEST PUSH1 0x0 DUP11 GT PUSH2 0x87A JUMPI PUSH1 0x40 MLOAD PUSH32 0xE1ABBFC500000000000000000000000000000000000000000000000000000000 DUP2 MSTORE PUSH1 0x4 ADD PUSH1 0x40 MLOAD DUP1 SWAP2 SUB SWAP1 REVERT JUMPDEST PUSH1 0x0 DUP13 SWAP1 POP ADDRESS PUSH20 0xFFFFFFFFFFFFFFFFFFFFFFFFFFFFFFFFFFFFFFFF AND DUP2 PUSH20 0xFFFFFFFFFFFFFFFFFFFFFFFFFFFFFFFFFFFFFFFF AND PUSH4 0xD7809252 DUP15 PUSH1 0x40 MLOAD DUP3 PUSH4 0xFFFFFFFF AND PUSH1 0xE0 SHL DUP2 MSTORE PUSH1 0x4 ADD PUSH2 0x8CF SWAP2 SWAP1 PUSH2 0x1A50 JUMP JUMPDEST PUSH1 0x20 PUSH1 0x40 MLOAD DUP1 DUP4 SUB DUP2 DUP7 DUP1 EXTCODESIZE ISZERO DUP1 ISZERO PUSH2 0x8E7 JUMPI PUSH1 0x0 DUP1 REVERT JUMPDEST POP GAS STATICCALL ISZERO DUP1 ISZERO PUSH2 0x8FB JUMPI RETURNDATASIZE PUSH1 0x0 DUP1 RETURNDATACOPY RETURNDATASIZE PUSH1 0x0 REVERT JUMPDEST POP POP POP POP PUSH1 0x40 MLOAD RETURNDATASIZE PUSH1 0x1F NOT PUSH1 0x1F DUP3 ADD AND DUP3 ADD DUP1 PUSH1 0x40 MSTORE POP DUP2 ADD SWAP1 PUSH2 0x91F SWAP2 SWAP1 PUSH2 0x15FB JUMP JUMPDEST PUSH20 0xFFFFFFFFFFFFFFFFFFFFFFFFFFFFFFFFFFFFFFFF AND EQ PUSH2 0x96C JUMPI PUSH1 0x40 MLOAD PUSH32 0x4BE3A2C500000000000000000000000000000000000000000000000000000000 DUP2 MSTORE PUSH1 0x4 ADD PUSH1 0x40 MLOAD DUP1 SWAP2 SUB SWAP1 REVERT JUMPDEST PUSH1 0x40 MLOAD DUP1 PUSH1 0x40 ADD PUSH1 0x40 MSTORE DUP1 DUP13 DUP2 MSTORE PUSH1 0x20 ADD DUP12 DUP2 MSTORE POP PUSH1 0x1 PUSH1 0x0 DUP16 PUSH20 0xFFFFFFFFFFFFFFFFFFFFFFFFFFFFFFFFFFFFFFFF AND PUSH20 0xFFFFFFFFFFFFFFFFFFFFFFFFFFFFFFFFFFFFFFFF AND DUP2 MSTORE PUSH1 0x20 ADD SWAP1 DUP2 MSTORE PUSH1 0x20 ADD PUSH1 0x0 KECCAK256 PUSH1 0x0 DUP15 DUP2 MSTORE PUSH1 0x20 ADD SWAP1 DUP2 MSTORE PUSH1 0x20 ADD PUSH1 0x0 KECCAK256 PUSH1 0x0 DUP3 ADD MLOAD DUP2 PUSH1 0x0 ADD SSTORE PUSH1 0x20 DUP3 ADD MLOAD DUP2 PUSH1 0x1 ADD SWAP1 DUP1 MLOAD SWAP1 PUSH1 0x20 ADD SWAP1 PUSH2 0x9F7 SWAP3 SWAP2 SWAP1 PUSH2 0x141F JUMP JUMPDEST POP SWAP1 POP POP DUP12 DUP14 PUSH20 0xFFFFFFFFFFFFFFFFFFFFFFFFFFFFFFFFFFFFFFFF AND DUP12 PUSH1 0x40 MLOAD PUSH2 0xA21 SWAP2 SWAP1 PUSH2 0x1962 JUMP JUMPDEST PUSH1 0x40 MLOAD DUP1 SWAP2 SUB SWAP1 KECCAK256 PUSH32 0x3D51A95276A8CFD6489223082D100F5A832A5E5363E06326CC478E86EE2B24DC DUP15 PUSH1 0x40 MLOAD PUSH2 0xA58 SWAP2 SWAP1 PUSH2 0x1A50 JUMP JUMPDEST PUSH1 0x40 MLOAD DUP1 SWAP2 SUB SWAP1 LOG4 POP POP POP POP POP POP POP POP POP POP POP POP POP JUMP JUMPDEST DUP4 DUP4 PUSH1 0x0 PUSH1 0x1 PUSH1 0x0 DUP5 PUSH20 0xFFFFFFFFFFFFFFFFFFFFFFFFFFFFFFFFFFFFFFFF AND PUSH20 0xFFFFFFFFFFFFFFFFFFFFFFFFFFFFFFFFFFFFFFFF AND DUP2 MSTORE PUSH1 0x20 ADD SWAP1 DUP2 MSTORE PUSH1 0x20 ADD PUSH1 0x0 KECCAK256 PUSH1 0x0 DUP4 DUP2 MSTORE PUSH1 0x20 ADD SWAP1 DUP2 MSTORE PUSH1 0x20 ADD PUSH1 0x0 KECCAK256 PUSH1 0x40 MLOAD DUP1 PUSH1 0x40 ADD PUSH1 0x40 MSTORE SWAP1 DUP2 PUSH1 0x0 DUP3 ADD SLOAD DUP2 MSTORE PUSH1 0x20 ADD PUSH1 0x1 DUP3 ADD DUP1 SLOAD PUSH2 0xAE8 SWAP1 PUSH2 0x1C16 JUMP JUMPDEST DUP1 PUSH1 0x1F ADD PUSH1 0x20 DUP1 SWAP2 DIV MUL PUSH1 0x20 ADD PUSH1 0x40 MLOAD SWAP1 DUP2 ADD PUSH1 0x40 MSTORE DUP1 SWAP3 SWAP2 SWAP1 DUP2 DUP2 MSTORE PUSH1 0x20 ADD DUP3 DUP1 SLOAD PUSH2 0xB14 SWAP1 PUSH2 0x1C16 JUMP JUMPDEST DUP1 ISZERO PUSH2 0xB61 JUMPI DUP1 PUSH1 0x1F LT PUSH2 0xB36 JUMPI PUSH2 0x100 DUP1 DUP4 SLOAD DIV MUL DUP4 MSTORE SWAP2 PUSH1 0x20 ADD SWAP2 PUSH2 0xB61 JUMP JUMPDEST DUP3 ADD SWAP2 SWAP1 PUSH1 0x0 MSTORE PUSH1 0x20 PUSH1 0x0 KECCAK256 SWAP1 JUMPDEST DUP2 SLOAD DUP2 MSTORE SWAP1 PUSH1 0x1 ADD SWAP1 PUSH1 0x20 ADD DUP1 DUP4 GT PUSH2 0xB44 JUMPI DUP3 SWAP1 SUB PUSH1 0x1F AND DUP3 ADD SWAP2 JUMPDEST POP POP POP POP POP DUP2 MSTORE POP POP SWAP1 POP PUSH1 0x0 DUP2 PUSH1 0x0 ADD MLOAD GT PUSH2 0xBB7 JUMPI DUP3 DUP3 PUSH1 0x40 MLOAD PUSH32 0x6831488C00000000000000000000000000000000000000000000000000000000 DUP2 MSTORE PUSH1 0x4 ADD PUSH2 0xBAE SWAP3 SWAP2 SWAP1 PUSH2 0x198E JUMP JUMPDEST PUSH1 0x40 MLOAD DUP1 SWAP2 SUB SWAP1 REVERT JUMPDEST PUSH2 0xBBF PUSH2 0x1385 JUMP JUMPDEST DUP7 DUP7 DUP6 PUSH1 0x0 DUP4 SWAP1 POP PUSH1 0x0 DUP2 PUSH20 0xFFFFFFFFFFFFFFFFFFFFFFFFFFFFFFFFFFFFFFFF AND PUSH4 0x6352211E DUP6 PUSH1 0x40 MLOAD DUP3 PUSH4 0xFFFFFFFF AND PUSH1 0xE0 SHL DUP2 MSTORE PUSH1 0x4 ADD PUSH2 0xC02 SWAP2 SWAP1 PUSH2 0x1A50 JUMP JUMPDEST PUSH1 0x0 PUSH1 0x40 MLOAD DUP1 DUP4 SUB DUP2 DUP7 DUP1 EXTCODESIZE ISZERO DUP1 ISZERO PUSH2 0xC1A JUMPI PUSH1 0x0 DUP1 REVERT JUMPDEST POP GAS STATICCALL ISZERO DUP1 ISZERO PUSH2 0xC2E JUMPI RETURNDATASIZE PUSH1 0x0 DUP1 RETURNDATACOPY RETURNDATASIZE PUSH1 0x0 REVERT JUMPDEST POP POP POP POP PUSH1 0x40 MLOAD RETURNDATASIZE PUSH1 0x0 DUP3 RETURNDATACOPY RETURNDATASIZE PUSH1 0x1F NOT PUSH1 0x1F DUP3 ADD AND DUP3 ADD DUP1 PUSH1 0x40 MSTORE POP DUP2 ADD SWAP1 PUSH2 0xC57 SWAP2 SWAP1 PUSH2 0x17A3 JUMP JUMPDEST SWAP1 POP DUP1 PUSH1 0x40 MLOAD PUSH1 0x20 ADD PUSH2 0xC6A SWAP2 SWAP1 PUSH2 0x1962 JUMP JUMPDEST PUSH1 0x40 MLOAD PUSH1 0x20 DUP2 DUP4 SUB SUB DUP2 MSTORE SWAP1 PUSH1 0x40 MSTORE DUP1 MLOAD SWAP1 PUSH1 0x20 ADD KECCAK256 DUP4 PUSH1 0x40 MLOAD PUSH1 0x20 ADD PUSH2 0xC91 SWAP2 SWAP1 PUSH2 0x1962 JUMP JUMPDEST PUSH1 0x40 MLOAD PUSH1 0x20 DUP2 DUP4 SUB SUB DUP2 MSTORE SWAP1 PUSH1 0x40 MSTORE DUP1 MLOAD SWAP1 PUSH1 0x20 ADD KECCAK256 EQ PUSH2 0xCDE JUMPI PUSH1 0x40 MLOAD PUSH32 0x30CD747100000000000000000000000000000000000000000000000000000000 DUP2 MSTORE PUSH1 0x4 ADD PUSH1 0x40 MLOAD DUP1 SWAP2 SUB SWAP1 REVERT JUMPDEST PUSH1 0x0 DUP11 GT PUSH2 0xD18 JUMPI PUSH1 0x40 MLOAD PUSH32 0xE1ABBFC500000000000000000000000000000000000000000000000000000000 DUP2 MSTORE PUSH1 0x4 ADD PUSH1 0x40 MLOAD DUP1 SWAP2 SUB SWAP1 REVERT JUMPDEST DUP10 PUSH1 0x1 PUSH1 0x0 DUP15 PUSH20 0xFFFFFFFFFFFFFFFFFFFFFFFFFFFFFFFFFFFFFFFF AND PUSH20 0xFFFFFFFFFFFFFFFFFFFFFFFFFFFFFFFFFFFFFFFF AND DUP2 MSTORE PUSH1 0x20 ADD SWAP1 DUP2 MSTORE PUSH1 0x20 ADD PUSH1 0x0 KECCAK256 PUSH1 0x0 DUP14 DUP2 MSTORE PUSH1 0x20 ADD SWAP1 DUP2 MSTORE PUSH1 0x20 ADD PUSH1 0x0 KECCAK256 PUSH1 0x0 ADD DUP2 SWAP1 SSTORE POP DUP11 DUP13 PUSH20 0xFFFFFFFFFFFFFFFFFFFFFFFFFFFFFFFFFFFFFFFF AND DUP11 PUSH1 0x40 MLOAD PUSH2 0xD96 SWAP2 SWAP1 PUSH2 0x1962 JUMP JUMPDEST PUSH1 0x40 MLOAD DUP1 SWAP2 SUB SWAP1 KECCAK256 PUSH32 0x3D51A95276A8CFD6489223082D100F5A832A5E5363E06326CC478E86EE2B24DC DUP14 PUSH1 0x40 MLOAD PUSH2 0xDCD SWAP2 SWAP1 PUSH2 0x1A50 JUMP JUMPDEST PUSH1 0x40 MLOAD DUP1 SWAP2 SUB SWAP1 LOG4 POP POP POP POP POP PUSH2 0xDE2 PUSH2 0x13D5 JUMP JUMPDEST POP POP POP POP POP POP POP JUMP JUMPDEST PUSH2 0xDF3 PUSH2 0x14A5 JUMP JUMPDEST PUSH1 0x1 PUSH1 0x0 DUP5 PUSH20 0xFFFFFFFFFFFFFFFFFFFFFFFFFFFFFFFFFFFFFFFF AND PUSH20 0xFFFFFFFFFFFFFFFFFFFFFFFFFFFFFFFFFFFFFFFF AND DUP2 MSTORE PUSH1 0x20 ADD SWAP1 DUP2 MSTORE PUSH1 0x20 ADD PUSH1 0x0 KECCAK256 PUSH1 0x0 DUP4 DUP2 MSTORE PUSH1 0x20 ADD SWAP1 DUP2 MSTORE PUSH1 0x20 ADD PUSH1 0x0 KECCAK256 PUSH1 0x40 MLOAD DUP1 PUSH1 0x40 ADD PUSH1 0x40 MSTORE SWAP1 DUP2 PUSH1 0x0 DUP3 ADD SLOAD DUP2 MSTORE PUSH1 0x20 ADD PUSH1 0x1 DUP3 ADD DUP1 SLOAD PUSH2 0xE68 SWAP1 PUSH2 0x1C16 JUMP JUMPDEST DUP1 PUSH1 0x1F ADD PUSH1 0x20 DUP1 SWAP2 DIV MUL PUSH1 0x20 ADD PUSH1 0x40 MLOAD SWAP1 DUP2 ADD PUSH1 0x40 MSTORE DUP1 SWAP3 SWAP2 SWAP1 DUP2 DUP2 MSTORE PUSH1 0x20 ADD DUP3 DUP1 SLOAD PUSH2 0xE94 SWAP1 PUSH2 0x1C16 JUMP JUMPDEST DUP1 ISZERO PUSH2 0xEE1 JUMPI DUP1 PUSH1 0x1F LT PUSH2 0xEB6 JUMPI PUSH2 0x100 DUP1 DUP4 SLOAD DIV MUL DUP4 MSTORE SWAP2 PUSH1 0x20 ADD SWAP2 PUSH2 0xEE1 JUMP JUMPDEST DUP3 ADD SWAP2 SWAP1 PUSH1 0x0 MSTORE PUSH1 0x20 PUSH1 0x0 KECCAK256 SWAP1 JUMPDEST DUP2 SLOAD DUP2 MSTORE SWAP1 PUSH1 0x1 ADD SWAP1 PUSH1 0x20 ADD DUP1 DUP4 GT PUSH2 0xEC4 JUMPI DUP3 SWAP1 SUB PUSH1 0x1F AND DUP3 ADD SWAP2 JUMPDEST POP POP POP POP POP DUP2 MSTORE POP POP SWAP1 POP SWAP3 SWAP2 POP POP JUMP JUMPDEST PUSH1 0x0 PUSH1 0x2 DUP3 PUSH1 0x40 MLOAD PUSH2 0xF04 SWAP2 SWAP1 PUSH2 0x1962 JUMP JUMPDEST SWAP1 DUP2 MSTORE PUSH1 0x20 ADD PUSH1 0x40 MLOAD DUP1 SWAP2 SUB SWAP1 KECCAK256 SLOAD SWAP1 POP PUSH1 0x0 DUP2 GT PUSH2 0xF4F JUMPI PUSH1 0x40 MLOAD PUSH32 0xC4D8FA8700000000000000000000000000000000000000000000000000000000 DUP2 MSTORE PUSH1 0x4 ADD PUSH1 0x40 MLOAD DUP1 SWAP2 SUB SWAP1 REVERT JUMPDEST PUSH1 0x0 PUSH1 0x2 DUP4 PUSH1 0x40 MLOAD PUSH2 0xF61 SWAP2 SWAP1 PUSH2 0x1962 JUMP JUMPDEST SWAP1 DUP2 MSTORE PUSH1 0x20 ADD PUSH1 0x40 MLOAD DUP1 SWAP2 SUB SWAP1 KECCAK256 DUP2 SWAP1 SSTORE POP PUSH1 0x0 CALLER PUSH20 0xFFFFFFFFFFFFFFFFFFFFFFFFFFFFFFFFFFFFFFFF AND DUP3 PUSH1 0x40 MLOAD PUSH2 0xF99 SWAP1 PUSH2 0x1979 JUMP JUMPDEST PUSH1 0x0 PUSH1 0x40 MLOAD DUP1 DUP4 SUB DUP2 DUP6 DUP8 GAS CALL SWAP3 POP POP POP RETURNDATASIZE DUP1 PUSH1 0x0 DUP2 EQ PUSH2 0xFD6 JUMPI PUSH1 0x40 MLOAD SWAP2 POP PUSH1 0x1F NOT PUSH1 0x3F RETURNDATASIZE ADD AND DUP3 ADD PUSH1 0x40 MSTORE RETURNDATASIZE DUP3 MSTORE RETURNDATASIZE PUSH1 0x0 PUSH1 0x20 DUP5 ADD RETURNDATACOPY PUSH2 0xFDB JUMP JUMPDEST PUSH1 0x60 SWAP2 POP JUMPDEST POP POP SWAP1 POP DUP1 PUSH2 0x101F JUMPI PUSH1 0x40 MLOAD PUSH32 0x8C379A000000000000000000000000000000000000000000000000000000000 DUP2 MSTORE PUSH1 0x4 ADD PUSH2 0x1016 SWAP1 PUSH2 0x19EE JUMP JUMPDEST PUSH1 0x40 MLOAD DUP1 SWAP2 SUB SWAP1 REVERT JUMPDEST POP POP POP JUMP JUMPDEST PUSH1 0x0 PUSH1 0x2 DUP3 PUSH1 0x40 MLOAD PUSH2 0x1036 SWAP2 SWAP1 PUSH2 0x1962 JUMP JUMPDEST SWAP1 DUP2 MSTORE PUSH1 0x20 ADD PUSH1 0x40 MLOAD DUP1 SWAP2 SUB SWAP1 KECCAK256 SLOAD SWAP1 POP SWAP2 SWAP1 POP JUMP JUMPDEST DUP3 DUP3 DUP3 PUSH1 0x0 DUP4 SWAP1 POP PUSH1 0x0 DUP2 PUSH20 0xFFFFFFFFFFFFFFFFFFFFFFFFFFFFFFFFFFFFFFFF AND PUSH4 0x6352211E DUP6 PUSH1 0x40 MLOAD DUP3 PUSH4 0xFFFFFFFF AND PUSH1 0xE0 SHL DUP2 MSTORE PUSH1 0x4 ADD PUSH2 0x108F SWAP2 SWAP1 PUSH2 0x1A50 JUMP JUMPDEST PUSH1 0x0 PUSH1 0x40 MLOAD DUP1 DUP4 SUB DUP2 DUP7 DUP1 EXTCODESIZE ISZERO DUP1 ISZERO PUSH2 0x10A7 JUMPI PUSH1 0x0 DUP1 REVERT JUMPDEST POP GAS STATICCALL ISZERO DUP1 ISZERO PUSH2 0x10BB JUMPI RETURNDATASIZE PUSH1 0x0 DUP1 RETURNDATACOPY RETURNDATASIZE PUSH1 0x0 REVERT JUMPDEST POP POP POP POP PUSH1 0x40 MLOAD RETURNDATASIZE PUSH1 0x0 DUP3 RETURNDATACOPY RETURNDATASIZE PUSH1 0x1F NOT PUSH1 0x1F DUP3 ADD AND DUP3 ADD DUP1 PUSH1 0x40 MSTORE POP DUP2 ADD SWAP1 PUSH2 0x10E4 SWAP2 SWAP1 PUSH2 0x17A3 JUMP JUMPDEST SWAP1 POP DUP1 PUSH1 0x40 MLOAD PUSH1 0x20 ADD PUSH2 0x10F7 SWAP2 SWAP1 PUSH2 0x1962 JUMP JUMPDEST PUSH1 0x40 MLOAD PUSH1 0x20 DUP2 DUP4 SUB SUB DUP2 MSTORE SWAP1 PUSH1 0x40 MSTORE DUP1 MLOAD SWAP1 PUSH1 0x20 ADD KECCAK256 DUP4 PUSH1 0x40 MLOAD PUSH1 0x20 ADD PUSH2 0x111E SWAP2 SWAP1 PUSH2 0x1962 JUMP JUMPDEST PUSH1 0x40 MLOAD PUSH1 0x20 DUP2 DUP4 SUB SUB DUP2 MSTORE SWAP1 PUSH1 0x40 MSTORE DUP1 MLOAD SWAP1 PUSH1 0x20 ADD KECCAK256 EQ PUSH2 0x116B JUMPI PUSH1 0x40 MLOAD PUSH32 0x30CD747100000000000000000000000000000000000000000000000000000000 DUP2 MSTORE PUSH1 0x4 ADD PUSH1 0x40 MLOAD DUP1 SWAP2 SUB SWAP1 REVERT JUMPDEST DUP8 DUP8 PUSH1 0x0 PUSH1 0x1 PUSH1 0x0 DUP5 PUSH20 0xFFFFFFFFFFFFFFFFFFFFFFFFFFFFFFFFFFFFFFFF AND PUSH20 0xFFFFFFFFFFFFFFFFFFFFFFFFFFFFFFFFFFFFFFFF AND DUP2 MSTORE PUSH1 0x20 ADD SWAP1 DUP2 MSTORE PUSH1 0x20 ADD PUSH1 0x0 KECCAK256 PUSH1 0x0 DUP4 DUP2 MSTORE PUSH1 0x20 ADD SWAP1 DUP2 MSTORE PUSH1 0x20 ADD PUSH1 0x0 KECCAK256 PUSH1 0x40 MLOAD DUP1 PUSH1 0x40 ADD PUSH1 0x40 MSTORE SWAP1 DUP2 PUSH1 0x0 DUP3 ADD SLOAD DUP2 MSTORE PUSH1 0x20 ADD PUSH1 0x1 DUP3 ADD DUP1 SLOAD PUSH2 0x11E4 SWAP1 PUSH2 0x1C16 JUMP JUMPDEST DUP1 PUSH1 0x1F ADD PUSH1 0x20 DUP1 SWAP2 DIV MUL PUSH1 0x20 ADD PUSH1 0x40 MLOAD SWAP1 DUP2 ADD PUSH1 0x40 MSTORE DUP1 SWAP3 SWAP2 SWAP1 DUP2 DUP2 MSTORE PUSH1 0x20 ADD DUP3 DUP1 SLOAD PUSH2 0x1210 SWAP1 PUSH2 0x1C16 JUMP JUMPDEST DUP1 ISZERO PUSH2 0x125D JUMPI DUP1 PUSH1 0x1F LT PUSH2 0x1232 JUMPI PUSH2 0x100 DUP1 DUP4 SLOAD DIV MUL DUP4 MSTORE SWAP2 PUSH1 0x20 ADD SWAP2 PUSH2 0x125D JUMP JUMPDEST DUP3 ADD SWAP2 SWAP1 PUSH1 0x0 MSTORE PUSH1 0x20 PUSH1 0x0 KECCAK256 SWAP1 JUMPDEST DUP2 SLOAD DUP2 MSTORE SWAP1 PUSH1 0x1 ADD SWAP1 PUSH1 0x20 ADD DUP1 DUP4 GT PUSH2 0x1240 JUMPI DUP3 SWAP1 SUB PUSH1 0x1F AND DUP3 ADD SWAP2 JUMPDEST POP POP POP POP POP DUP2 MSTORE POP POP SWAP1 POP PUSH1 0x0 DUP2 PUSH1 0x0 ADD MLOAD GT PUSH2 0x12B3 JUMPI DUP3 DUP3 PUSH1 0x40 MLOAD PUSH32 0x6831488C00000000000000000000000000000000000000000000000000000000 DUP2 MSTORE PUSH1 0x4 ADD PUSH2 0x12AA SWAP3 SWAP2 SWAP1 PUSH2 0x198E JUMP JUMPDEST PUSH1 0x40 MLOAD DUP1 SWAP2 SUB SWAP1 REVERT JUMPDEST PUSH1 0x1 PUSH1 0x0 DUP13 PUSH20 0xFFFFFFFFFFFFFFFFFFFFFFFFFFFFFFFFFFFFFFFF AND PUSH20 0xFFFFFFFFFFFFFFFFFFFFFFFFFFFFFFFFFFFFFFFF AND DUP2 MSTORE PUSH1 0x20 ADD SWAP1 DUP2 MSTORE PUSH1 0x20 ADD PUSH1 0x0 KECCAK256 PUSH1 0x0 DUP12 DUP2 MSTORE PUSH1 0x20 ADD SWAP1 DUP2 MSTORE PUSH1 0x20 ADD PUSH1 0x0 KECCAK256 PUSH1 0x0 DUP1 DUP3 ADD PUSH1 0x0 SWAP1 SSTORE PUSH1 0x1 DUP3 ADD PUSH1 0x0 PUSH2 0x131C SWAP2 SWAP1 PUSH2 0x13DF JUMP JUMPDEST POP POP DUP10 DUP12 PUSH20 0xFFFFFFFFFFFFFFFFFFFFFFFFFFFFFFFFFFFFFFFF AND DUP11 PUSH1 0x40 MLOAD PUSH2 0x1344 SWAP2 SWAP1 PUSH2 0x1962 JUMP JUMPDEST PUSH1 0x40 MLOAD DUP1 SWAP2 SUB SWAP1 KECCAK256 PUSH32 0x98AA7F63F9D2537E9815212BF2DC15C3E24FC2B9AB046B8BA1B0299B24ECAC3C PUSH1 0x40 MLOAD PUSH1 0x40 MLOAD DUP1 SWAP2 SUB SWAP1 LOG4 POP POP POP POP POP POP POP POP POP POP POP JUMP JUMPDEST PUSH1 0x2 PUSH1 0x0 SLOAD EQ ISZERO PUSH2 0x13CB JUMPI PUSH1 0x40 MLOAD PUSH32 0x8C379A000000000000000000000000000000000000000000000000000000000 DUP2 MSTORE PUSH1 0x4 ADD PUSH2 0x13C2 SWAP1 PUSH2 0x1A0E JUMP JUMPDEST PUSH1 0x40 MLOAD DUP1 SWAP2 SUB SWAP1 REVERT JUMPDEST PUSH1 0x2 PUSH1 0x0 DUP2 SWAP1 SSTORE POP JUMP JUMPDEST PUSH1 0x1 PUSH1 0x0 DUP2 SWAP1 SSTORE POP JUMP JUMPDEST POP DUP1 SLOAD PUSH2 0x13EB SWAP1 PUSH2 0x1C16 JUMP JUMPDEST PUSH1 0x0 DUP3 SSTORE DUP1 PUSH1 0x1F LT PUSH2 0x13FD JUMPI POP PUSH2 0x141C JUMP JUMPDEST PUSH1 0x1F ADD PUSH1 0x20 SWAP1 DIV SWAP1 PUSH1 0x0 MSTORE PUSH1 0x20 PUSH1 0x0 KECCAK256 SWAP1 DUP2 ADD SWAP1 PUSH2 0x141B SWAP2 SWAP1 PUSH2 0x14BF JUMP JUMPDEST JUMPDEST POP JUMP JUMPDEST DUP3 DUP1 SLOAD PUSH2 0x142B SWAP1 PUSH2 0x1C16 JUMP JUMPDEST SWAP1 PUSH1 0x0 MSTORE PUSH1 0x20 PUSH1 0x0 KECCAK256 SWAP1 PUSH1 0x1F ADD PUSH1 0x20 SWAP1 DIV DUP2 ADD SWAP3 DUP3 PUSH2 0x144D JUMPI PUSH1 0x0 DUP6 SSTORE PUSH2 0x1494 JUMP JUMPDEST DUP3 PUSH1 0x1F LT PUSH2 0x1466 JUMPI DUP1 MLOAD PUSH1 0xFF NOT AND DUP4 DUP1 ADD OR DUP6 SSTORE PUSH2 0x1494 JUMP JUMPDEST DUP3 DUP1 ADD PUSH1 0x1 ADD DUP6 SSTORE DUP3 ISZERO PUSH2 0x1494 JUMPI SWAP2 DUP3 ADD JUMPDEST DUP3 DUP2 GT ISZERO PUSH2 0x1493 JUMPI DUP3 MLOAD DUP3 SSTORE SWAP2 PUSH1 0x20 ADD SWAP2 SWAP1 PUSH1 0x1 ADD SWAP1 PUSH2 0x1478 JUMP JUMPDEST JUMPDEST POP SWAP1 POP PUSH2 0x14A1 SWAP2 SWAP1 PUSH2 0x14BF JUMP JUMPDEST POP SWAP1 JUMP JUMPDEST PUSH1 0x40 MLOAD DUP1 PUSH1 0x40 ADD PUSH1 0x40 MSTORE DUP1 PUSH1 0x0 DUP2 MSTORE PUSH1 0x20 ADD PUSH1 0x60 DUP2 MSTORE POP SWAP1 JUMP JUMPDEST JUMPDEST DUP1 DUP3 GT ISZERO PUSH2 0x14D8 JUMPI PUSH1 0x0 DUP2 PUSH1 0x0 SWAP1 SSTORE POP PUSH1 0x1 ADD PUSH2 0x14C0 JUMP JUMPDEST POP SWAP1 JUMP JUMPDEST PUSH1 0x0 PUSH2 0x14EF PUSH2 0x14EA DUP5 PUSH2 0x1ACE JUMP JUMPDEST PUSH2 0x1AA9 JUMP JUMPDEST SWAP1 POP DUP3 DUP2 MSTORE PUSH1 0x20 DUP2 ADD DUP5 DUP5 DUP5 ADD GT ISZERO PUSH2 0x150B JUMPI PUSH2 0x150A PUSH2 0x1D0B JUMP JUMPDEST JUMPDEST PUSH2 0x1516 DUP5 DUP3 DUP6 PUSH2 0x1BD4 JUMP JUMPDEST POP SWAP4 SWAP3 POP POP POP JUMP JUMPDEST PUSH1 0x0 PUSH2 0x1531 PUSH2 0x152C DUP5 PUSH2 0x1ACE JUMP JUMPDEST PUSH2 0x1AA9 JUMP JUMPDEST SWAP1 POP DUP3 DUP2 MSTORE PUSH1 0x20 DUP2 ADD DUP5 DUP5 DUP5 ADD GT ISZERO PUSH2 0x154D JUMPI PUSH2 0x154C PUSH2 0x1D0B JUMP JUMPDEST JUMPDEST PUSH2 0x1558 DUP5 DUP3 DUP6 PUSH2 0x1BE3 JUMP JUMPDEST POP SWAP4 SWAP3 POP POP POP JUMP JUMPDEST PUSH1 0x0 DUP2 CALLDATALOAD SWAP1 POP PUSH2 0x156F DUP2 PUSH2 0x1D80 JUMP JUMPDEST SWAP3 SWAP2 POP POP JUMP JUMPDEST PUSH1 0x0 DUP2 MLOAD SWAP1 POP PUSH2 0x1584 DUP2 PUSH2 0x1D80 JUMP JUMPDEST SWAP3 SWAP2 POP POP JUMP JUMPDEST PUSH1 0x0 DUP3 PUSH1 0x1F DUP4 ADD SLT PUSH2 0x159F JUMPI PUSH2 0x159E PUSH2 0x1D06 JUMP JUMPDEST JUMPDEST DUP2 CALLDATALOAD PUSH2 0x15AF DUP5 DUP3 PUSH1 0x20 DUP7 ADD PUSH2 0x14DC JUMP JUMPDEST SWAP2 POP POP SWAP3 SWAP2 POP POP JUMP JUMPDEST PUSH1 0x0 DUP3 PUSH1 0x1F DUP4 ADD SLT PUSH2 0x15CD JUMPI PUSH2 0x15CC PUSH2 0x1D06 JUMP JUMPDEST JUMPDEST DUP2 MLOAD PUSH2 0x15DD DUP5 DUP3 PUSH1 0x20 DUP7 ADD PUSH2 0x151E JUMP JUMPDEST SWAP2 POP POP SWAP3 SWAP2 POP POP JUMP JUMPDEST PUSH1 0x0 DUP2 CALLDATALOAD SWAP1 POP PUSH2 0x15F5 DUP2 PUSH2 0x1D97 JUMP JUMPDEST SWAP3 SWAP2 POP POP JUMP JUMPDEST PUSH1 0x0 PUSH1 0x20 DUP3 DUP5 SUB SLT ISZERO PUSH2 0x1611 JUMPI PUSH2 0x1610 PUSH2 0x1D15 JUMP JUMPDEST JUMPDEST PUSH1 0x0 PUSH2 0x161F DUP5 DUP3 DUP6 ADD PUSH2 0x1575 JUMP JUMPDEST SWAP2 POP POP SWAP3 SWAP2 POP POP JUMP JUMPDEST PUSH1 0x0 DUP1 PUSH1 0x40 DUP4 DUP6 SUB SLT ISZERO PUSH2 0x163F JUMPI PUSH2 0x163E PUSH2 0x1D15 JUMP JUMPDEST JUMPDEST PUSH1 0x0 PUSH2 0x164D DUP6 DUP3 DUP7 ADD PUSH2 0x1560 JUMP JUMPDEST SWAP3 POP POP PUSH1 0x20 PUSH2 0x165E DUP6 DUP3 DUP7 ADD PUSH2 0x15E6 JUMP JUMPDEST SWAP2 POP POP SWAP3 POP SWAP3 SWAP1 POP JUMP JUMPDEST PUSH1 0x0 DUP1 PUSH1 0x0 PUSH1 0x60 DUP5 DUP7 SUB SLT ISZERO PUSH2 0x1681 JUMPI PUSH2 0x1680 PUSH2 0x1D15 JUMP JUMPDEST JUMPDEST PUSH1 0x0 PUSH2 0x168F DUP7 DUP3 DUP8 ADD PUSH2 0x1560 JUMP JUMPDEST SWAP4 POP POP PUSH1 0x20 PUSH2 0x16A0 DUP7 DUP3 DUP8 ADD PUSH2 0x15E6 JUMP JUMPDEST SWAP3 POP POP PUSH1 0x40 DUP5 ADD CALLDATALOAD PUSH8 0xFFFFFFFFFFFFFFFF DUP2 GT ISZERO PUSH2 0x16C1 JUMPI PUSH2 0x16C0 PUSH2 0x1D10 JUMP JUMPDEST JUMPDEST PUSH2 0x16CD DUP7 DUP3 DUP8 ADD PUSH2 0x158A JUMP JUMPDEST SWAP2 POP POP SWAP3 POP SWAP3 POP SWAP3 JUMP JUMPDEST PUSH1 0x0 DUP1 PUSH1 0x0 DUP1 PUSH1 0x80 DUP6 DUP8 SUB SLT ISZERO PUSH2 0x16F1 JUMPI PUSH2 0x16F0 PUSH2 0x1D15 JUMP JUMPDEST JUMPDEST PUSH1 0x0 PUSH2 0x16FF DUP8 DUP3 DUP9 ADD PUSH2 0x1560 JUMP JUMPDEST SWAP5 POP POP PUSH1 0x20 PUSH2 0x1710 DUP8 DUP3 DUP9 ADD PUSH2 0x15E6 JUMP JUMPDEST SWAP4 POP POP PUSH1 0x40 PUSH2 0x1721 DUP8 DUP3 DUP9 ADD PUSH2 0x15E6 JUMP JUMPDEST SWAP3 POP POP PUSH1 0x60 DUP6 ADD CALLDATALOAD PUSH8 0xFFFFFFFFFFFFFFFF DUP2 GT ISZERO PUSH2 0x1742 JUMPI PUSH2 0x1741 PUSH2 0x1D10 JUMP JUMPDEST JUMPDEST PUSH2 0x174E DUP8 DUP3 DUP9 ADD PUSH2 0x158A JUMP JUMPDEST SWAP2 POP POP SWAP3 SWAP6 SWAP2 SWAP5 POP SWAP3 POP JUMP JUMPDEST PUSH1 0x0 PUSH1 0x20 DUP3 DUP5 SUB SLT ISZERO PUSH2 0x1770 JUMPI PUSH2 0x176F PUSH2 0x1D15 JUMP JUMPDEST JUMPDEST PUSH1 0x0 DUP3 ADD CALLDATALOAD PUSH8 0xFFFFFFFFFFFFFFFF DUP2 GT ISZERO PUSH2 0x178E JUMPI PUSH2 0x178D PUSH2 0x1D10 JUMP JUMPDEST JUMPDEST PUSH2 0x179A DUP5 DUP3 DUP6 ADD PUSH2 0x158A JUMP JUMPDEST SWAP2 POP POP SWAP3 SWAP2 POP POP JUMP JUMPDEST PUSH1 0x0 PUSH1 0x20 DUP3 DUP5 SUB SLT ISZERO PUSH2 0x17B9 JUMPI PUSH2 0x17B8 PUSH2 0x1D15 JUMP JUMPDEST JUMPDEST PUSH1 0x0 DUP3 ADD MLOAD PUSH8 0xFFFFFFFFFFFFFFFF DUP2 GT ISZERO PUSH2 0x17D7 JUMPI PUSH2 0x17D6 PUSH2 0x1D10 JUMP JUMPDEST JUMPDEST PUSH2 0x17E3 DUP5 DUP3 DUP6 ADD PUSH2 0x15B8 JUMP JUMPDEST SWAP2 POP POP SWAP3 SWAP2 POP POP JUMP JUMPDEST PUSH2 0x17F5 DUP2 PUSH2 0x1B98 JUMP JUMPDEST DUP3 MSTORE POP POP JUMP JUMPDEST PUSH1 0x0 PUSH2 0x1806 DUP3 PUSH2 0x1AFF JUMP JUMPDEST PUSH2 0x1810 DUP2 DUP6 PUSH2 0x1B15 JUMP JUMPDEST SWAP4 POP PUSH2 0x1820 DUP2 DUP6 PUSH1 0x20 DUP7 ADD PUSH2 0x1BE3 JUMP JUMPDEST PUSH2 0x1829 DUP2 PUSH2 0x1D1A JUMP JUMPDEST DUP5 ADD SWAP2 POP POP SWAP3 SWAP2 POP POP JUMP JUMPDEST PUSH1 0x0 PUSH2 0x183F DUP3 PUSH2 0x1AFF JUMP JUMPDEST PUSH2 0x1849 DUP2 DUP6 PUSH2 0x1B26 JUMP JUMPDEST SWAP4 POP PUSH2 0x1859 DUP2 DUP6 PUSH1 0x20 DUP7 ADD PUSH2 0x1BE3 JUMP JUMPDEST PUSH2 0x1862 DUP2 PUSH2 0x1D1A JUMP JUMPDEST DUP5 ADD SWAP2 POP POP SWAP3 SWAP2 POP POP JUMP JUMPDEST PUSH1 0x0 PUSH2 0x1878 DUP3 PUSH2 0x1AFF JUMP JUMPDEST PUSH2 0x1882 DUP2 DUP6 PUSH2 0x1B37 JUMP JUMPDEST SWAP4 POP PUSH2 0x1892 DUP2 DUP6 PUSH1 0x20 DUP7 ADD PUSH2 0x1BE3 JUMP JUMPDEST DUP1 DUP5 ADD SWAP2 POP POP SWAP3 SWAP2 POP POP JUMP JUMPDEST PUSH1 0x0 PUSH2 0x18AB PUSH1 0xF DUP4 PUSH2 0x1B26 JUMP JUMPDEST SWAP2 POP PUSH2 0x18B6 DUP3 PUSH2 0x1D2B JUMP JUMPDEST PUSH1 0x20 DUP3 ADD SWAP1 POP SWAP2 SWAP1 POP JUMP JUMPDEST PUSH1 0x0 PUSH2 0x18CE PUSH1 0x0 DUP4 PUSH2 0x1B0A JUMP JUMPDEST SWAP2 POP PUSH2 0x18D9 DUP3 PUSH2 0x1D54 JUMP JUMPDEST PUSH1 0x0 DUP3 ADD SWAP1 POP SWAP2 SWAP1 POP JUMP JUMPDEST PUSH1 0x0 PUSH2 0x18F1 PUSH1 0x1F DUP4 PUSH2 0x1B26 JUMP JUMPDEST SWAP2 POP PUSH2 0x18FC DUP3 PUSH2 0x1D57 JUMP JUMPDEST PUSH1 0x20 DUP3 ADD SWAP1 POP SWAP2 SWAP1 POP JUMP JUMPDEST PUSH1 0x0 PUSH1 0x40 DUP4 ADD PUSH1 0x0 DUP4 ADD MLOAD PUSH2 0x191F PUSH1 0x0 DUP7 ADD DUP3 PUSH2 0x1944 JUMP JUMPDEST POP PUSH1 0x20 DUP4 ADD MLOAD DUP5 DUP3 SUB PUSH1 0x20 DUP7 ADD MSTORE PUSH2 0x1937 DUP3 DUP3 PUSH2 0x17FB JUMP JUMPDEST SWAP2 POP POP DUP1 SWAP2 POP POP SWAP3 SWAP2 POP POP JUMP JUMPDEST PUSH2 0x194D DUP2 PUSH2 0x1BCA JUMP JUMPDEST DUP3 MSTORE POP POP JUMP JUMPDEST PUSH2 0x195C DUP2 PUSH2 0x1BCA JUMP JUMPDEST DUP3 MSTORE POP POP JUMP JUMPDEST PUSH1 0x0 PUSH2 0x196E DUP3 DUP5 PUSH2 0x186D JUMP JUMPDEST SWAP2 POP DUP2 SWAP1 POP SWAP3 SWAP2 POP POP JUMP JUMPDEST PUSH1 0x0 PUSH2 0x1984 DUP3 PUSH2 0x18C1 JUMP JUMPDEST SWAP2 POP DUP2 SWAP1 POP SWAP2 SWAP1 POP JUMP JUMPDEST PUSH1 0x0 PUSH1 0x40 DUP3 ADD SWAP1 POP PUSH2 0x19A3 PUSH1 0x0 DUP4 ADD DUP6 PUSH2 0x17EC JUMP JUMPDEST PUSH2 0x19B0 PUSH1 0x20 DUP4 ADD DUP5 PUSH2 0x1953 JUMP JUMPDEST SWAP4 SWAP3 POP POP POP JUMP JUMPDEST PUSH1 0x0 PUSH1 0x60 DUP3 ADD SWAP1 POP PUSH2 0x19CC PUSH1 0x0 DUP4 ADD DUP7 PUSH2 0x17EC JUMP JUMPDEST PUSH2 0x19D9 PUSH1 0x20 DUP4 ADD DUP6 PUSH2 0x1953 JUMP JUMPDEST PUSH2 0x19E6 PUSH1 0x40 DUP4 ADD DUP5 PUSH2 0x1953 JUMP JUMPDEST SWAP5 SWAP4 POP POP POP POP JUMP JUMPDEST PUSH1 0x0 PUSH1 0x20 DUP3 ADD SWAP1 POP DUP2 DUP2 SUB PUSH1 0x0 DUP4 ADD MSTORE PUSH2 0x1A07 DUP2 PUSH2 0x189E JUMP JUMPDEST SWAP1 POP SWAP2 SWAP1 POP JUMP JUMPDEST PUSH1 0x0 PUSH1 0x20 DUP3 ADD SWAP1 POP DUP2 DUP2 SUB PUSH1 0x0 DUP4 ADD MSTORE PUSH2 0x1A27 DUP2 PUSH2 0x18E4 JUMP JUMPDEST SWAP1 POP SWAP2 SWAP1 POP JUMP JUMPDEST PUSH1 0x0 PUSH1 0x20 DUP3 ADD SWAP1 POP DUP2 DUP2 SUB PUSH1 0x0 DUP4 ADD MSTORE PUSH2 0x1A48 DUP2 DUP5 PUSH2 0x1907 JUMP JUMPDEST SWAP1 POP SWAP3 SWAP2 POP POP JUMP JUMPDEST PUSH1 0x0 PUSH1 0x20 DUP3 ADD SWAP1 POP PUSH2 0x1A65 PUSH1 0x0 DUP4 ADD DUP5 PUSH2 0x1953 JUMP JUMPDEST SWAP3 SWAP2 POP POP JUMP JUMPDEST PUSH1 0x0 PUSH1 0x60 DUP3 ADD SWAP1 POP PUSH2 0x1A80 PUSH1 0x0 DUP4 ADD DUP7 PUSH2 0x1953 JUMP JUMPDEST DUP2 DUP2 SUB PUSH1 0x20 DUP4 ADD MSTORE PUSH2 0x1A92 DUP2 DUP6 PUSH2 0x1834 JUMP JUMPDEST SWAP1 POP PUSH2 0x1AA1 PUSH1 0x40 DUP4 ADD DUP5 PUSH2 0x17EC JUMP JUMPDEST SWAP5 SWAP4 POP POP POP POP JUMP JUMPDEST PUSH1 0x0 PUSH2 0x1AB3 PUSH2 0x1AC4 JUMP JUMPDEST SWAP1 POP PUSH2 0x1ABF DUP3 DUP3 PUSH2 0x1C48 JUMP JUMPDEST SWAP2 SWAP1 POP JUMP JUMPDEST PUSH1 0x0 PUSH1 0x40 MLOAD SWAP1 POP SWAP1 JUMP JUMPDEST PUSH1 0x0 PUSH8 0xFFFFFFFFFFFFFFFF DUP3 GT ISZERO PUSH2 0x1AE9 JUMPI PUSH2 0x1AE8 PUSH2 0x1CD7 JUMP JUMPDEST JUMPDEST PUSH2 0x1AF2 DUP3 PUSH2 0x1D1A JUMP JUMPDEST SWAP1 POP PUSH1 0x20 DUP2 ADD SWAP1 POP SWAP2 SWAP1 POP JUMP JUMPDEST PUSH1 0x0 DUP2 MLOAD SWAP1 POP SWAP2 SWAP1 POP JUMP JUMPDEST PUSH1 0x0 DUP2 SWAP1 POP SWAP3 SWAP2 POP POP JUMP JUMPDEST PUSH1 0x0 DUP3 DUP3 MSTORE PUSH1 0x20 DUP3 ADD SWAP1 POP SWAP3 SWAP2 POP POP JUMP JUMPDEST PUSH1 0x0 DUP3 DUP3 MSTORE PUSH1 0x20 DUP3 ADD SWAP1 POP SWAP3 SWAP2 POP POP JUMP JUMPDEST PUSH1 0x0 DUP2 SWAP1 POP SWAP3 SWAP2 POP POP JUMP JUMPDEST PUSH1 0x0 PUSH2 0x1B4D DUP3 PUSH2 0x1BCA JUMP JUMPDEST SWAP2 POP PUSH2 0x1B58 DUP4 PUSH2 0x1BCA JUMP JUMPDEST SWAP3 POP DUP3 PUSH32 0xFFFFFFFFFFFFFFFFFFFFFFFFFFFFFFFFFFFFFFFFFFFFFFFFFFFFFFFFFFFFFFFF SUB DUP3 GT ISZERO PUSH2 0x1B8D JUMPI PUSH2 0x1B8C PUSH2 0x1C79 JUMP JUMPDEST JUMPDEST DUP3 DUP3 ADD SWAP1 POP SWAP3 SWAP2 POP POP JUMP JUMPDEST PUSH1 0x0 PUSH2 0x1BA3 DUP3 PUSH2 0x1BAA JUMP JUMPDEST SWAP1 POP SWAP2 SWAP1 POP JUMP JUMPDEST PUSH1 0x0 PUSH20 0xFFFFFFFFFFFFFFFFFFFFFFFFFFFFFFFFFFFFFFFF DUP3 AND SWAP1 POP SWAP2 SWAP1 POP JUMP JUMPDEST PUSH1 0x0 DUP2 SWAP1 POP SWAP2 SWAP1 POP JUMP JUMPDEST DUP3 DUP2 DUP4 CALLDATACOPY PUSH1 0x0 DUP4 DUP4 ADD MSTORE POP POP POP JUMP JUMPDEST PUSH1 0x0 JUMPDEST DUP4 DUP2 LT ISZERO PUSH2 0x1C01 JUMPI DUP1 DUP3 ADD MLOAD DUP2 DUP5 ADD MSTORE PUSH1 0x20 DUP2 ADD SWAP1 POP PUSH2 0x1BE6 JUMP JUMPDEST DUP4 DUP2 GT ISZERO PUSH2 0x1C10 JUMPI PUSH1 0x0 DUP5 DUP5 ADD MSTORE JUMPDEST POP POP POP POP JUMP JUMPDEST PUSH1 0x0 PUSH1 0x2 DUP3 DIV SWAP1 POP PUSH1 0x1 DUP3 AND DUP1 PUSH2 0x1C2E JUMPI PUSH1 0x7F DUP3 AND SWAP2 POP JUMPDEST PUSH1 0x20 DUP3 LT DUP2 EQ ISZERO PUSH2 0x1C42 JUMPI PUSH2 0x1C41 PUSH2 0x1CA8 JUMP JUMPDEST JUMPDEST POP SWAP2 SWAP1 POP JUMP JUMPDEST PUSH2 0x1C51 DUP3 PUSH2 0x1D1A JUMP JUMPDEST DUP2 ADD DUP2 DUP2 LT PUSH8 0xFFFFFFFFFFFFFFFF DUP3 GT OR ISZERO PUSH2 0x1C70 JUMPI PUSH2 0x1C6F PUSH2 0x1CD7 JUMP JUMPDEST JUMPDEST DUP1 PUSH1 0x40 MSTORE POP POP POP JUMP JUMPDEST PUSH32 0x4E487B7100000000000000000000000000000000000000000000000000000000 PUSH1 0x0 MSTORE PUSH1 0x11 PUSH1 0x4 MSTORE PUSH1 0x24 PUSH1 0x0 REVERT JUMPDEST PUSH32 0x4E487B7100000000000000000000000000000000000000000000000000000000 PUSH1 0x0 MSTORE PUSH1 0x22 PUSH1 0x4 MSTORE PUSH1 0x24 PUSH1 0x0 REVERT JUMPDEST PUSH32 0x4E487B7100000000000000000000000000000000000000000000000000000000 PUSH1 0x0 MSTORE PUSH1 0x41 PUSH1 0x4 MSTORE PUSH1 0x24 PUSH1 0x0 REVERT JUMPDEST PUSH1 0x0 DUP1 REVERT JUMPDEST PUSH1 0x0 DUP1 REVERT JUMPDEST PUSH1 0x0 DUP1 REVERT JUMPDEST PUSH1 0x0 DUP1 REVERT JUMPDEST PUSH1 0x0 PUSH1 0x1F NOT PUSH1 0x1F DUP4 ADD AND SWAP1 POP SWAP2 SWAP1 POP JUMP JUMPDEST PUSH32 0x5472616E73666572206661696C65640000000000000000000000000000000000 PUSH1 0x0 DUP3 ADD MSTORE POP JUMP JUMPDEST POP JUMP JUMPDEST PUSH32 0x5265656E7472616E637947756172643A207265656E7472616E742063616C6C00 PUSH1 0x0 DUP3 ADD MSTORE POP JUMP JUMPDEST PUSH2 0x1D89 DUP2 PUSH2 0x1B98 JUMP JUMPDEST DUP2 EQ PUSH2 0x1D94 JUMPI PUSH1 0x0 DUP1 REVERT JUMPDEST POP JUMP JUMPDEST PUSH2 0x1DA0 DUP2 PUSH2 0x1BCA JUMP JUMPDEST DUP2 EQ PUSH2 0x1DAB JUMPI PUSH1 0x0 DUP1 REVERT JUMPDEST POP JUMP INVALID LOG2 PUSH5 0x6970667358 0x22 SLT KECCAK256 SDIV PUSH13 0x2A52899470400CDD3F458A0611 RETURNDATACOPY 0xD 0xE9 0xD0 SLT STATICCALL 0xBB PUSH29 0xD1559097AFC169259D64736F6C63430008070033000000000000000000 "},"gasEstimates":{"creation":{"codeDepositCost":"1530400","executionCost":"23717","totalCost":"1554117"},"external":{"buyItem(address,uint256,string)":"infinite","cancelListing(address,uint256,string)":"infinite","getListing(address,uint256)":"infinite","getProceeds(string)":"infinite","listItem(address,uint256,uint256,string)":"infinite","updateListing(address,uint256,uint256,string)":"infinite","withdrawProceeds(string)":"infinite"}},"methodIdentifiers":{"buyItem(address,uint256,string)":"3c5d352b","cancelListing(address,uint256,string)":"e6d5ce55","getListing(address,uint256)":"88700d1c","getProceeds(string)":"b3a89861","listItem(address,uint256,uint256,string)":"5095709e","updateListing(address,uint256,uint256,string)":"5b0d9d9b","withdrawProceeds(string)":"a97ce3c2"}},"storageLayout":{"storage":[{"astId":10,"contract":"contracts/nftMarketPlace.sol:NftMarketplace","label":"_status","offset":0,"slot":"0","type":"t_uint256"},{"astId":565,"contract":"contracts/nftMarketPlace.sol:NftMarketplace","label":"s_listings","offset":0,"slot":"1","type":"t_mapping(t_address,t_mapping(t_uint256,t_struct(Listing)530_storage))"},{"astId":569,"contract":"contracts/nftMarketPlace.sol:NftMarketplace","label":"s_proceeds","offset":0,"slot":"2","type":"t_mapping(t_string_memory_ptr,t_uint256)"}],"types":{"t_address":{"encoding":"inplace","label":"address","numberOfBytes":"20"},"t_mapping(t_address,t_mapping(t_uint256,t_struct(Listing)530_storage))":{"encoding":"mapping","key":"t_address","label":"mapping(address => mapping(uint256 => struct NftMarketplace.Listing))","numberOfBytes":"32","value":"t_mapping(t_uint256,t_struct(Listing)530_storage)"},"t_mapping(t_string_memory_ptr,t_uint256)":{"encoding":"mapping","key":"t_string_memory_ptr","label":"mapping(string => uint256)","numberOfBytes":"32","value":"t_uint256"},"t_mapping(t_uint256,t_struct(Listing)530_storage)":{"encoding":"mapping","key":"t_uint256","label":"mapping(uint256 => struct NftMarketplace.Listing)","numberOfBytes":"32","value":"t_struct(Listing)530_storage"},"t_string_memory_ptr":{"encoding":"bytes","label":"string","numberOfBytes":"32"},"t_string_storage":{"encoding":"bytes","label":"string","numberOfBytes":"32"},"t_struct(Listing)530_storage":{"encoding":"inplace","label":"struct NftMarketplace.Listing","members":[{"astId":527,"contract":"contracts/nftMarketPlace.sol:NftMarketplace","label":"price","offset":0,"slot":"0","type":"t_uint256"},{"astId":529,"contract":"contracts/nftMarketPlace.sol:NftMarketplace","label":"seller","offset":0,"slot":"1","type":"t_string_storage"}],"numberOfBytes":"64"},"t_uint256":{"encoding":"inplace","label":"uint256","numberOfBytes":"32"}}},"userdoc":{"kind":"user","methods":{},"version":1}}}}