{
  "address": "0x35134200915f722b8A86E3BDE17469F31c525b50",
  "abi": [
    {
      "inputs": [
        {
          "internalType": "address",
          "name": "nftAddress",
          "type": "address"
        },
        {
          "internalType": "uint256",
          "name": "tokenId",
          "type": "uint256"
        }
      ],
      "name": "AlreadyListed",
      "type": "error"
    },
    {
      "inputs": [],
      "name": "NoProceeds",
      "type": "error"
    },
    {
      "inputs": [],
      "name": "NotApprovedForMarketplace",
      "type": "error"
    },
    {
      "inputs": [
        {
          "internalType": "address",
          "name": "nftAddress",
          "type": "address"
        },
        {
          "internalType": "uint256",
          "name": "tokenId",
          "type": "uint256"
        }
      ],
      "name": "NotListed",
      "type": "error"
    },
    {
      "inputs": [],
      "name": "NotOwner",
      "type": "error"
    },
    {
      "inputs": [],
      "name": "PriceMustBeAboveZero",
      "type": "error"
    },
    {
      "inputs": [
        {
          "internalType": "address",
          "name": "nftAddress",
          "type": "address"
        },
        {
          "internalType": "uint256",
          "name": "tokenId",
          "type": "uint256"
        },
        {
          "internalType": "uint256",
          "name": "price",
          "type": "uint256"
        }
      ],
      "name": "PriceNotMet",
      "type": "error"
    },
    {
      "anonymous": false,
      "inputs": [
        {
          "indexed": true,
          "internalType": "string",
          "name": "buyer",
          "type": "string"
        },
        {
          "indexed": true,
          "internalType": "address",
          "name": "nftAddress",
          "type": "address"
        },
        {
          "indexed": true,
          "internalType": "uint256",
          "name": "tokenId",
          "type": "uint256"
        },
        {
          "indexed": false,
          "internalType": "uint256",
          "name": "price",
          "type": "uint256"
        }
      ],
      "name": "ItemBought",
      "type": "event"
    },
    {
      "anonymous": false,
      "inputs": [
        {
          "indexed": true,
          "internalType": "string",
          "name": "seller",
          "type": "string"
        },
        {
          "indexed": true,
          "internalType": "address",
          "name": "nftAddress",
          "type": "address"
        },
        {
          "indexed": true,
          "internalType": "uint256",
          "name": "tokenId",
          "type": "uint256"
        }
      ],
      "name": "ItemCanceled",
      "type": "event"
    },
    {
      "anonymous": false,
      "inputs": [
        {
          "indexed": true,
          "internalType": "string",
          "name": "seller",
          "type": "string"
        },
        {
          "indexed": true,
          "internalType": "address",
          "name": "nftAddress",
          "type": "address"
        },
        {
          "indexed": true,
          "internalType": "uint256",
          "name": "tokenId",
          "type": "uint256"
        },
        {
          "indexed": false,
          "internalType": "uint256",
          "name": "price",
          "type": "uint256"
        }
      ],
      "name": "ItemListed",
      "type": "event"
    },
    {
      "inputs": [
        {
          "internalType": "address",
          "name": "nftAddress",
          "type": "address"
        },
        {
          "internalType": "uint256",
          "name": "tokenId",
          "type": "uint256"
        },
        {
          "internalType": "string",
          "name": "nul",
          "type": "string"
        }
      ],
      "name": "buyItem",
      "outputs": [],
      "stateMutability": "payable",
      "type": "function"
    },
    {
      "inputs": [
        {
          "internalType": "address",
          "name": "nftAddress",
          "type": "address"
        },
        {
          "internalType": "uint256",
          "name": "tokenId",
          "type": "uint256"
        },
        {
          "internalType": "string",
          "name": "nul",
          "type": "string"
        }
      ],
      "name": "cancelListing",
      "outputs": [],
      "stateMutability": "nonpayable",
      "type": "function"
    },
    {
      "inputs": [
        {
          "internalType": "address",
          "name": "nftAddress",
          "type": "address"
        },
        {
          "internalType": "uint256",
          "name": "tokenId",
          "type": "uint256"
        }
      ],
      "name": "getListing",
      "outputs": [
        {
          "components": [
            {
              "internalType": "uint256",
              "name": "price",
              "type": "uint256"
            },
            {
              "internalType": "string",
              "name": "seller",
              "type": "string"
            }
          ],
          "internalType": "struct NftMarketplace.Listing",
          "name": "",
          "type": "tuple"
        }
      ],
      "stateMutability": "view",
      "type": "function"
    },
    {
      "inputs": [
        {
          "internalType": "string",
          "name": "sellerNul",
          "type": "string"
        }
      ],
      "name": "getProceeds",
      "outputs": [
        {
          "internalType": "uint256",
          "name": "",
          "type": "uint256"
        }
      ],
      "stateMutability": "view",
      "type": "function"
    },
    {
      "inputs": [
        {
          "internalType": "address",
          "name": "nftAddress",
          "type": "address"
        },
        {
          "internalType": "uint256",
          "name": "tokenId",
          "type": "uint256"
        },
        {
          "internalType": "uint256",
          "name": "price",
          "type": "uint256"
        },
        {
          "internalType": "string",
          "name": "nul",
          "type": "string"
        }
      ],
      "name": "listItem",
      "outputs": [],
      "stateMutability": "nonpayable",
      "type": "function"
    },
    {
      "inputs": [
        {
          "internalType": "address",
          "name": "nftAddress",
          "type": "address"
        },
        {
          "internalType": "uint256",
          "name": "tokenId",
          "type": "uint256"
        },
        {
          "internalType": "uint256",
          "name": "newPrice",
          "type": "uint256"
        },
        {
          "internalType": "string",
          "name": "nul",
          "type": "string"
        }
      ],
      "name": "updateListing",
      "outputs": [],
      "stateMutability": "nonpayable",
      "type": "function"
    },
    {
      "inputs": [
        {
          "internalType": "string",
          "name": "nul",
          "type": "string"
        }
      ],
      "name": "withdrawProceeds",
      "outputs": [],
      "stateMutability": "nonpayable",
      "type": "function"
    }
  ],
  "transactionHash": "0x62d30e2166ee31eca2439c6b0265ae13e8bdbdbee34769872969a7a45fb6e8ca",
  "args": [],
  "numDeployments": 1,
  "solcInputHash": "93a641e257a5d6749b998c3966f7c664",
  "bytecode": "0x608060405234801561001057600080fd5b506001600081905550611de4806100286000396000f3fe6080604052600436106100705760003560e01c806388700d1c1161004e57806388700d1c146100e3578063a97ce3c214610120578063b3a8986114610149578063e6d5ce551461018657610070565b80633c5d352b146100755780635095709e146100915780635b0d9d9b146100ba575b600080fd5b61008f600480360381019061008a9190611668565b6101af565b005b34801561009d57600080fd5b506100b860048036038101906100b391906116d7565b6105d8565b005b3480156100c657600080fd5b506100e160048036038101906100dc91906116d7565b610a6f565b005b3480156100ef57600080fd5b5061010a60048036038101906101059190611628565b610deb565b6040516101179190611a2e565b60405180910390f35b34801561012c57600080fd5b506101476004803603810190610142919061175a565b610ef2565b005b34801561015557600080fd5b50610170600480360381019061016b919061175a565b611024565b60405161017d9190611a50565b60405180910390f35b34801561019257600080fd5b506101ad60048036038101906101a89190611668565b61104c565b005b82826000600160008473ffffffffffffffffffffffffffffffffffffffff1673ffffffffffffffffffffffffffffffffffffffff16815260200190815260200160002060008381526020019081526020016000206040518060400160405290816000820154815260200160018201805461022890611c16565b80601f016020809104026020016040519081016040528092919081815260200182805461025490611c16565b80156102a15780601f10610276576101008083540402835291602001916102a1565b820191906000526020600020905b81548152906001019060200180831161028457829003601f168201915b505050505081525050905060008160000151116102f75782826040517f6831488c0000000000000000000000000000000000000000000000000000000081526004016102ee92919061198e565b60405180910390fd5b6102ff611385565b6000600160008873ffffffffffffffffffffffffffffffffffffffff1673ffffffffffffffffffffffffffffffffffffffff16815260200190815260200160002060008781526020019081526020016000206040518060400160405290816000820154815260200160018201805461037690611c16565b80601f01602080910402602001604051908101604052809291908181526020018280546103a290611c16565b80156103ef5780601f106103c4576101008083540402835291602001916103ef565b820191906000526020600020905b8154815290600101906020018083116103d257829003601f168201915b5050505050815250509050806000015134101561044b57868682600001516040517f7c934565000000000000000000000000000000000000000000000000000000008152600401610442939291906119b7565b60405180910390fd5b34600282602001516040516104609190611962565b9081526020016040518091039020600082825461047d9190611b42565b92505081905550600160008873ffffffffffffffffffffffffffffffffffffffff1673ffffffffffffffffffffffffffffffffffffffff16815260200190815260200160002060008781526020019081526020016000206000808201600090556001820160006104ed91906113df565b50508673ffffffffffffffffffffffffffffffffffffffff166311eb6a6b8787336040518463ffffffff1660e01b815260040161052c93929190611a6b565b600060405180830381600087803b15801561054657600080fd5b505af115801561055a573d6000803e3d6000fd5b50505050858773ffffffffffffffffffffffffffffffffffffffff16866040516105849190611962565b60405180910390207f109617ae15899087bebf7009a690ee879f8ab01d1fa1115bf04c3821fbeba37984600001516040516105bf9190611a50565b60405180910390a4506105d06113d5565b505050505050565b83836000600160008473ffffffffffffffffffffffffffffffffffffffff1673ffffffffffffffffffffffffffffffffffffffff16815260200190815260200160002060008381526020019081526020016000206040518060400160405290816000820154815260200160018201805461065190611c16565b80601f016020809104026020016040519081016040528092919081815260200182805461067d90611c16565b80156106ca5780601f1061069f576101008083540402835291602001916106ca565b820191906000526020600020905b8154815290600101906020018083116106ad57829003601f168201915b50505050508152505090506000816000015111156107215782826040517f4a5568d500000000000000000000000000000000000000000000000000000000815260040161071892919061198e565b60405180910390fd5b868685600083905060008173ffffffffffffffffffffffffffffffffffffffff16636352211e856040518263ffffffff1660e01b81526004016107649190611a50565b60006040518083038186803b15801561077c57600080fd5b505afa158015610790573d6000803e3d6000fd5b505050506040513d6000823e3d601f19601f820116820180604052508101906107b991906117a3565b9050806040516020016107cc9190611962565b60405160208183030381529060405280519060200120836040516020016107f39190611962565b6040516020818303038152906040528051906020012014610840576040517f30cd747100000000000000000000000000000000000000000000000000000000815260040160405180910390fd5b60008a1161087a576040517fe1abbfc500000000000000000000000000000000000000000000000000000000815260040160405180910390fd5b60008c90503073ffffffffffffffffffffffffffffffffffffffff168173ffffffffffffffffffffffffffffffffffffffff1663d78092528e6040518263ffffffff1660e01b81526004016108cf9190611a50565b60206040518083038186803b1580156108e757600080fd5b505afa1580156108fb573d6000803e3d6000fd5b505050506040513d601f19601f8201168201806040525081019061091f91906115fb565b73ffffffffffffffffffffffffffffffffffffffff161461096c576040517f4be3a2c500000000000000000000000000000000000000000000000000000000815260040160405180910390fd5b60405180604001604052808c81526020018b815250600160008f73ffffffffffffffffffffffffffffffffffffffff1673ffffffffffffffffffffffffffffffffffffffff16815260200190815260200160002060008e81526020019081526020016000206000820151816000015560208201518160010190805190602001906109f792919061141f565b509050508b8d73ffffffffffffffffffffffffffffffffffffffff168b604051610a219190611962565b60405180910390207f3d51a95276a8cfd6489223082d100f5a832a5e5363e06326cc478e86ee2b24dc8e604051610a589190611a50565b60405180910390a450505050505050505050505050565b83836000600160008473ffffffffffffffffffffffffffffffffffffffff1673ffffffffffffffffffffffffffffffffffffffff168152602001908152602001600020600083815260200190815260200160002060405180604001604052908160008201548152602001600182018054610ae890611c16565b80601f0160208091040260200160405190810160405280929190818152602001828054610b1490611c16565b8015610b615780601f10610b3657610100808354040283529160200191610b61565b820191906000526020600020905b815481529060010190602001808311610b4457829003601f168201915b50505050508152505090506000816000015111610bb75782826040517f6831488c000000000000000000000000000000000000000000000000000000008152600401610bae92919061198e565b60405180910390fd5b610bbf611385565b868685600083905060008173ffffffffffffffffffffffffffffffffffffffff16636352211e856040518263ffffffff1660e01b8152600401610c029190611a50565b60006040518083038186803b158015610c1a57600080fd5b505afa158015610c2e573d6000803e3d6000fd5b505050506040513d6000823e3d601f19601f82011682018060405250810190610c5791906117a3565b905080604051602001610c6a9190611962565b6040516020818303038152906040528051906020012083604051602001610c919190611962565b6040516020818303038152906040528051906020012014610cde576040517f30cd747100000000000000000000000000000000000000000000000000000000815260040160405180910390fd5b60008a11610d18576040517fe1abbfc500000000000000000000000000000000000000000000000000000000815260040160405180910390fd5b89600160008e73ffffffffffffffffffffffffffffffffffffffff1673ffffffffffffffffffffffffffffffffffffffff16815260200190815260200160002060008d8152602001908152602001600020600001819055508a8c73ffffffffffffffffffffffffffffffffffffffff168a604051610d969190611962565b60405180910390207f3d51a95276a8cfd6489223082d100f5a832a5e5363e06326cc478e86ee2b24dc8d604051610dcd9190611a50565b60405180910390a45050505050610de26113d5565b50505050505050565b610df36114a5565b600160008473ffffffffffffffffffffffffffffffffffffffff1673ffffffffffffffffffffffffffffffffffffffff168152602001908152602001600020600083815260200190815260200160002060405180604001604052908160008201548152602001600182018054610e6890611c16565b80601f0160208091040260200160405190810160405280929190818152602001828054610e9490611c16565b8015610ee15780601f10610eb657610100808354040283529160200191610ee1565b820191906000526020600020905b815481529060010190602001808311610ec457829003601f168201915b505050505081525050905092915050565b6000600282604051610f049190611962565b908152602001604051809103902054905060008111610f4f576040517fc4d8fa8700000000000000000000000000000000000000000000000000000000815260040160405180910390fd5b6000600283604051610f619190611962565b90815260200160405180910390208190555060003373ffffffffffffffffffffffffffffffffffffffff1682604051610f9990611979565b60006040518083038185875af1925050503d8060008114610fd6576040519150601f19603f3d011682016040523d82523d6000602084013e610fdb565b606091505b505090508061101f576040517f08c379a0000000000000000000000000000000000000000000000000000000008152600401611016906119ee565b60405180910390fd5b505050565b60006002826040516110369190611962565b9081526020016040518091039020549050919050565b828282600083905060008173ffffffffffffffffffffffffffffffffffffffff16636352211e856040518263ffffffff1660e01b815260040161108f9190611a50565b60006040518083038186803b1580156110a757600080fd5b505afa1580156110bb573d6000803e3d6000fd5b505050506040513d6000823e3d601f19601f820116820180604052508101906110e491906117a3565b9050806040516020016110f79190611962565b604051602081830303815290604052805190602001208360405160200161111e9190611962565b604051602081830303815290604052805190602001201461116b576040517f30cd747100000000000000000000000000000000000000000000000000000000815260040160405180910390fd5b87876000600160008473ffffffffffffffffffffffffffffffffffffffff1673ffffffffffffffffffffffffffffffffffffffff1681526020019081526020016000206000838152602001908152602001600020604051806040016040529081600082015481526020016001820180546111e490611c16565b80601f016020809104026020016040519081016040528092919081815260200182805461121090611c16565b801561125d5780601f106112325761010080835404028352916020019161125d565b820191906000526020600020905b81548152906001019060200180831161124057829003601f168201915b505050505081525050905060008160000151116112b35782826040517f6831488c0000000000000000000000000000000000000000000000000000000081526004016112aa92919061198e565b60405180910390fd5b600160008c73ffffffffffffffffffffffffffffffffffffffff1673ffffffffffffffffffffffffffffffffffffffff16815260200190815260200160002060008b815260200190815260200160002060008082016000905560018201600061131c91906113df565b5050898b73ffffffffffffffffffffffffffffffffffffffff168a6040516113449190611962565b60405180910390207f98aa7f63f9d2537e9815212bf2dc15c3e24fc2b9ab046b8ba1b0299b24ecac3c60405160405180910390a45050505050505050505050565b600260005414156113cb576040517f08c379a00000000000000000000000000000000000000000000000000000000081526004016113c290611a0e565b60405180910390fd5b6002600081905550565b6001600081905550565b5080546113eb90611c16565b6000825580601f106113fd575061141c565b601f01602090049060005260206000209081019061141b91906114bf565b5b50565b82805461142b90611c16565b90600052602060002090601f01602090048101928261144d5760008555611494565b82601f1061146657805160ff1916838001178555611494565b82800160010185558215611494579182015b82811115611493578251825591602001919060010190611478565b5b5090506114a191906114bf565b5090565b604051806040016040528060008152602001606081525090565b5b808211156114d85760008160009055506001016114c0565b5090565b60006114ef6114ea84611ace565b611aa9565b90508281526020810184848401111561150b5761150a611d0b565b5b611516848285611bd4565b509392505050565b600061153161152c84611ace565b611aa9565b90508281526020810184848401111561154d5761154c611d0b565b5b611558848285611be3565b509392505050565b60008135905061156f81611d80565b92915050565b60008151905061158481611d80565b92915050565b600082601f83011261159f5761159e611d06565b5b81356115af8482602086016114dc565b91505092915050565b600082601f8301126115cd576115cc611d06565b5b81516115dd84826020860161151e565b91505092915050565b6000813590506115f581611d97565b92915050565b60006020828403121561161157611610611d15565b5b600061161f84828501611575565b91505092915050565b6000806040838503121561163f5761163e611d15565b5b600061164d85828601611560565b925050602061165e858286016115e6565b9150509250929050565b60008060006060848603121561168157611680611d15565b5b600061168f86828701611560565b93505060206116a0868287016115e6565b925050604084013567ffffffffffffffff8111156116c1576116c0611d10565b5b6116cd8682870161158a565b9150509250925092565b600080600080608085870312156116f1576116f0611d15565b5b60006116ff87828801611560565b9450506020611710878288016115e6565b9350506040611721878288016115e6565b925050606085013567ffffffffffffffff81111561174257611741611d10565b5b61174e8782880161158a565b91505092959194509250565b6000602082840312156117705761176f611d15565b5b600082013567ffffffffffffffff81111561178e5761178d611d10565b5b61179a8482850161158a565b91505092915050565b6000602082840312156117b9576117b8611d15565b5b600082015167ffffffffffffffff8111156117d7576117d6611d10565b5b6117e3848285016115b8565b91505092915050565b6117f581611b98565b82525050565b600061180682611aff565b6118108185611b15565b9350611820818560208601611be3565b61182981611d1a565b840191505092915050565b600061183f82611aff565b6118498185611b26565b9350611859818560208601611be3565b61186281611d1a565b840191505092915050565b600061187882611aff565b6118828185611b37565b9350611892818560208601611be3565b80840191505092915050565b60006118ab600f83611b26565b91506118b682611d2b565b602082019050919050565b60006118ce600083611b0a565b91506118d982611d54565b600082019050919050565b60006118f1601f83611b26565b91506118fc82611d57565b602082019050919050565b600060408301600083015161191f6000860182611944565b506020830151848203602086015261193782826117fb565b9150508091505092915050565b61194d81611bca565b82525050565b61195c81611bca565b82525050565b600061196e828461186d565b915081905092915050565b6000611984826118c1565b9150819050919050565b60006040820190506119a360008301856117ec565b6119b06020830184611953565b9392505050565b60006060820190506119cc60008301866117ec565b6119d96020830185611953565b6119e66040830184611953565b949350505050565b60006020820190508181036000830152611a078161189e565b9050919050565b60006020820190508181036000830152611a27816118e4565b9050919050565b60006020820190508181036000830152611a488184611907565b905092915050565b6000602082019050611a656000830184611953565b92915050565b6000606082019050611a806000830186611953565b8181036020830152611a928185611834565b9050611aa160408301846117ec565b949350505050565b6000611ab3611ac4565b9050611abf8282611c48565b919050565b6000604051905090565b600067ffffffffffffffff821115611ae957611ae8611cd7565b5b611af282611d1a565b9050602081019050919050565b600081519050919050565b600081905092915050565b600082825260208201905092915050565b600082825260208201905092915050565b600081905092915050565b6000611b4d82611bca565b9150611b5883611bca565b9250827fffffffffffffffffffffffffffffffffffffffffffffffffffffffffffffffff03821115611b8d57611b8c611c79565b5b828201905092915050565b6000611ba382611baa565b9050919050565b600073ffffffffffffffffffffffffffffffffffffffff82169050919050565b6000819050919050565b82818337600083830152505050565b60005b83811015611c01578082015181840152602081019050611be6565b83811115611c10576000848401525b50505050565b60006002820490506001821680611c2e57607f821691505b60208210811415611c4257611c41611ca8565b5b50919050565b611c5182611d1a565b810181811067ffffffffffffffff82111715611c7057611c6f611cd7565b5b80604052505050565b7f4e487b7100000000000000000000000000000000000000000000000000000000600052601160045260246000fd5b7f4e487b7100000000000000000000000000000000000000000000000000000000600052602260045260246000fd5b7f4e487b7100000000000000000000000000000000000000000000000000000000600052604160045260246000fd5b600080fd5b600080fd5b600080fd5b600080fd5b6000601f19601f8301169050919050565b7f5472616e73666572206661696c65640000000000000000000000000000000000600082015250565b50565b7f5265656e7472616e637947756172643a207265656e7472616e742063616c6c00600082015250565b611d8981611b98565b8114611d9457600080fd5b50565b611da081611bca565b8114611dab57600080fd5b5056fea2646970667358221220056c2a52899470400cdd3f458a06113e0de9d012fabb7cd1559097afc169259d64736f6c63430008070033",
  "devdoc": {
    "kind": "dev",
    "methods": {},
    "version": 1
  },
  "userdoc": {
    "kind": "user",
    "methods": {},
    "version": 1
  },
  "storageLayout": {
    "storage": [
      {
        "astId": 10,
        "contract": "contracts/nftMarketPlace.sol:NftMarketplace",
        "label": "_status",
        "offset": 0,
        "slot": "0",
        "type": "t_uint256"
      },
      {
        "astId": 565,
        "contract": "contracts/nftMarketPlace.sol:NftMarketplace",
        "label": "s_listings",
        "offset": 0,
        "slot": "1",
        "type": "t_mapping(t_address,t_mapping(t_uint256,t_struct(Listing)530_storage))"
      },
      {
        "astId": 569,
        "contract": "contracts/nftMarketPlace.sol:NftMarketplace",
        "label": "s_proceeds",
        "offset": 0,
        "slot": "2",
        "type": "t_mapping(t_string_memory_ptr,t_uint256)"
      }
    ],
    "types": {
      "t_address": {
        "encoding": "inplace",
        "label": "address",
        "numberOfBytes": "20"
      },
      "t_mapping(t_address,t_mapping(t_uint256,t_struct(Listing)530_storage))": {
        "encoding": "mapping",
        "key": "t_address",
        "label": "mapping(address => mapping(uint256 => struct NftMarketplace.Listing))",
        "numberOfBytes": "32",
        "value": "t_mapping(t_uint256,t_struct(Listing)530_storage)"
      },
      "t_mapping(t_string_memory_ptr,t_uint256)": {
        "encoding": "mapping",
        "key": "t_string_memory_ptr",
        "label": "mapping(string => uint256)",
        "numberOfBytes": "32",
        "value": "t_uint256"
      },
      "t_mapping(t_uint256,t_struct(Listing)530_storage)": {
        "encoding": "mapping",
        "key": "t_uint256",
        "label": "mapping(uint256 => struct NftMarketplace.Listing)",
        "numberOfBytes": "32",
        "value": "t_struct(Listing)530_storage"
      },
      "t_string_memory_ptr": {
        "encoding": "bytes",
        "label": "string",
        "numberOfBytes": "32"
      },
      "t_string_storage": {
        "encoding": "bytes",
        "label": "string",
        "numberOfBytes": "32"
      },
      "t_struct(Listing)530_storage": {
        "encoding": "inplace",
        "label": "struct NftMarketplace.Listing",
        "members": [
          {
            "astId": 527,
            "contract": "contracts/nftMarketPlace.sol:NftMarketplace",
            "label": "price",
            "offset": 0,
            "slot": "0",
            "type": "t_uint256"
          },
          {
            "astId": 529,
            "contract": "contracts/nftMarketPlace.sol:NftMarketplace",
            "label": "seller",
            "offset": 0,
            "slot": "1",
            "type": "t_string_storage"
          }
        ],
        "numberOfBytes": "64"
      },
      "t_uint256": {
        "encoding": "inplace",
        "label": "uint256",
        "numberOfBytes": "32"
      }
    }
  }
}