{
  "address": "0x226Aa2192e2772fb13c8995d433fD44b786A4F83",
  "abi": [
    {
      "inputs": [
        {
          "internalType": "address",
          "name": "_hasher",
          "type": "address"
        },
        {
          "internalType": "address",
          "name": "_verifier",
          "type": "address"
        }
      ],
      "stateMutability": "nonpayable",
      "type": "constructor"
    },
    {
      "anonymous": false,
      "inputs": [
        {
          "indexed": false,
          "internalType": "address",
          "name": "to",
          "type": "address"
        },
        {
          "indexed": false,
          "internalType": "uint256",
          "name": "nullifierHash",
          "type": "uint256"
        }
      ],
      "name": "Check",
      "type": "event"
    },
    {
      "anonymous": false,
      "inputs": [
        {
          "indexed": false,
          "internalType": "uint256",
          "name": "root",
          "type": "uint256"
        },
        {
          "indexed": false,
          "internalType": "uint256[10]",
          "name": "hashPairings",
          "type": "uint256[10]"
        },
        {
          "indexed": false,
          "internalType": "uint8[10]",
          "name": "pairDirection",
          "type": "uint8[10]"
        }
      ],
      "name": "Mint",
      "type": "event"
    },
    {
      "inputs": [
        {
          "internalType": "uint256",
          "name": "i",
          "type": "uint256"
        }
      ],
      "name": "com_exists",
      "outputs": [
        {
          "internalType": "bool",
          "name": "",
          "type": "bool"
        }
      ],
      "stateMutability": "view",
      "type": "function"
    },
    {
      "inputs": [
        {
          "internalType": "uint256",
          "name": "_commitment",
          "type": "uint256"
        }
      ],
      "name": "minting",
      "outputs": [],
      "stateMutability": "nonpayable",
      "type": "function"
    },
    {
      "inputs": [],
      "name": "nextLeafIdx",
      "outputs": [
        {
          "internalType": "uint256",
          "name": "",
          "type": "uint256"
        }
      ],
      "stateMutability": "view",
      "type": "function"
    },
    {
      "inputs": [
        {
          "internalType": "uint256",
          "name": "i",
          "type": "uint256"
        }
      ],
      "name": "null_exists",
      "outputs": [
        {
          "internalType": "bool",
          "name": "",
          "type": "bool"
        }
      ],
      "stateMutability": "view",
      "type": "function"
    },
    {
      "inputs": [
        {
          "internalType": "uint256",
          "name": "i",
          "type": "uint256"
        }
      ],
      "name": "registerNull",
      "outputs": [],
      "stateMutability": "nonpayable",
      "type": "function"
    },
    {
      "inputs": [
        {
          "internalType": "uint256",
          "name": "i",
          "type": "uint256"
        }
      ],
      "name": "regiterCom",
      "outputs": [],
      "stateMutability": "nonpayable",
      "type": "function"
    },
    {
      "inputs": [
        {
          "internalType": "uint256",
          "name": "",
          "type": "uint256"
        }
      ],
      "name": "roots",
      "outputs": [
        {
          "internalType": "bool",
          "name": "",
          "type": "bool"
        }
      ],
      "stateMutability": "view",
      "type": "function"
    },
    {
      "inputs": [],
      "name": "treeLevel",
      "outputs": [
        {
          "internalType": "uint8",
          "name": "",
          "type": "uint8"
        }
      ],
      "stateMutability": "view",
      "type": "function"
    },
    {
      "inputs": [
        {
          "internalType": "uint256[2]",
          "name": "a",
          "type": "uint256[2]"
        },
        {
          "internalType": "uint256[2][2]",
          "name": "b",
          "type": "uint256[2][2]"
        },
        {
          "internalType": "uint256[2]",
          "name": "c",
          "type": "uint256[2]"
        },
        {
          "internalType": "uint256[2]",
          "name": "input",
          "type": "uint256[2]"
        },
        {
          "internalType": "address",
          "name": "nftMPAddress",
          "type": "address"
        },
        {
          "internalType": "uint256",
          "name": "com",
          "type": "uint256"
        }
      ],
      "name": "withdraw",
      "outputs": [],
      "stateMutability": "nonpayable",
      "type": "function"
    }
  ],
  "transactionHash": "0x9afb00442bb8483a44887b38d90975f79f219910c100a34902fec4e35288bf64",
  "args": [
    "0x01304CDE6a0873b4D5735Eb540FD0e552C737821",
    "0x608e697291f072e01e3E5ed65966c8279Ab30A1d"
  ],
  "numDeployments": 1,
  "solcInputHash": "28fdc8a0ed6f0e2bffc46ea124794e96",
  "bytecode": "0x60806040526040518061014001604052807f33418cd1669b4e7f4bf473ec2db9a489b3d6f9f11b91d0b3b6004432ab53d60b81526020017f350ffb7c45ccf8940c163b192252495b614def57272b6f8d9a53a5b3e44ef8bd81526020017fc8acb7af851baf91a82b1ad46b01ac506ce80387170890dea377d21e8520258481526020017f5171d273154b2764aa5903210e16bd1899b18648d1358d41887a113227e9acc581526020017f986c06cb04d613f57cf7a1da410e0f22c794e1ec1ae125898cfc9662a5e5be5981526020017f6eb9a05106eff3031621027680204b2e9326b0e5191bd62f3cd7bf7f6d94d02781526020017fa1cbc8691493398c061f547b4882edbb6a38ce1730c8a2605e9d8138d4ad122681526020017f850aa72f3d8bc65181e9c29d76f7614e2f939ade9442abac29fc8a0329deeffd81526020017fe9c6f678752dbfc89028bf8b9b1cce608b34b742b75fbae878ec2c6ae803dc1e81526020017fa9e22c2e1f4531bc4389032bb472b97c25a7298d27ba4fefd75439a1be46f77f815250600090600a6200019c9291906200027b565b50600a600b60146101000a81548160ff021916908360ff1602179055506000600c55348015620001cb57600080fd5b5060405162001b8938038062001b898339818101604052810190620001f1919062000349565b81600b60006101000a81548173ffffffffffffffffffffffffffffffffffffffff021916908373ffffffffffffffffffffffffffffffffffffffff16021790555080600a60006101000a81548173ffffffffffffffffffffffffffffffffffffffff021916908373ffffffffffffffffffffffffffffffffffffffff160217905550505062000390565b82600a8101928215620002ad579160200282015b82811115620002ac5782518255916020019190600101906200028f565b5b509050620002bc9190620002c0565b5090565b5b80821115620002db576000816000905550600101620002c1565b5090565b600080fd5b600073ffffffffffffffffffffffffffffffffffffffff82169050919050565b60006200031182620002e4565b9050919050565b620003238162000304565b81146200032f57600080fd5b50565b600081519050620003438162000318565b92915050565b60008060408385031215620003635762000362620002df565b5b6000620003738582860162000332565b9250506020620003868582860162000332565b9150509250929050565b6117e980620003a06000396000f3fe608060405234801561001057600080fd5b50600436106100935760003560e01c8063bd275bb411610066578063bd275bb414610120578063c25879a31461013c578063c2b40ae414610158578063ce2f03d714610188578063f2cee92b146101b857610093565b806345e0523f14610098578063785dfae8146100b6578063a45805eb146100e6578063b8e7956414610102575b600080fd5b6100a06101d4565b6040516100ad9190610a16565b60405180910390f35b6100d060048036038101906100cb9190610a6c565b6101da565b6040516100dd9190610ab4565b60405180910390f35b61010060048036038101906100fb9190610a6c565b610204565b005b61010a610233565b6040516101179190610aeb565b60405180910390f35b61013a60048036038101906101359190610d5c565b610246565b005b61015660048036038101906101519190610a6c565b610516565b005b610172600480360381019061016d9190610a6c565b610545565b60405161017f9190610ab4565b60405180910390f35b6101a2600480360381019061019d9190610a6c565b610565565b6040516101af9190610ab4565b60405180910390f35b6101d260048036038101906101cd9190610a6c565b61058f565b005b600c5481565b60006010600083815260200190815260200160002060009054906101000a900460ff169050919050565b6001600f600083815260200190815260200160002060006101000a81548160ff02191690831515021790555050565b600b60149054906101000a900460ff1681565b60008360006002811061025c5761025b610ded565b5b6020020151905060008460016002811061027957610278610ded565b5b60200201519050600f600082815260200190815260200160002060009054906101000a900460ff166102e0576040517f08c379a00000000000000000000000000000000000000000000000000000000081526004016102d790610e79565b60405180910390fd5b600d600083815260200190815260200160002060009054906101000a900460ff16610340576040517f08c379a000000000000000000000000000000000000000000000000000000000815260040161033790610ee5565b60405180910390fd5b60003373ffffffffffffffffffffffffffffffffffffffff1690506000600a60009054906101000a900473ffffffffffffffffffffffffffffffffffffffff1673ffffffffffffffffffffffffffffffffffffffff168a8a8a6040518060600160405280898152602001888152602001878152506040516024016103c79493929190611132565b6040516020818303038152906040526311479fea60e01b6020820180517bffffffffffffffffffffffffffffffffffffffffffffffffffffffff838183161783525050505060405161041991906111ea565b6000604051808303816000865af19150503d8060008114610456576040519150601f19603f3d011682016040523d82523d6000602084013e61045b565b606091505b505090508061049f576040517f08c379a00000000000000000000000000000000000000000000000000000000081526004016104969061124d565b60405180910390fd5b8573ffffffffffffffffffffffffffffffffffffffff1663d9f1aed9866040518263ffffffff1660e01b81526004016104d89190610a16565b600060405180830381600087803b1580156104f257600080fd5b505af1158015610506573d6000803e3d6000fd5b5050505050505050505050505050565b60016010600083815260200190815260200160002060006101000a81548160ff02191690831515021790555050565b600d6020528060005260406000206000915054906101000a900460ff1681565b6000600f600083815260200190815260200160002060009054906101000a900460ff169050919050565b6010600082815260200190815260200160002060009054906101000a900460ff16156105f0576040517f08c379a00000000000000000000000000000000000000000000000000000000081526004016105e7906112b9565b60405180910390fd5b600b60149054906101000a900460ff16600261060c919061143b565b600c541061064f576040517f08c379a0000000000000000000000000000000000000000000000000000000008152600401610646906114d2565b60405180910390fd5b6000610659610995565b6106616109b8565b6000600c54905060008590506000806106786109db565b60005b600b60149054906101000a900460ff1660ff168160ff1610156108d95760006002876106a79190611521565b036107305784935060008160ff16600a81106106c6576106c5610ded565b5b0154925060008160ff16600a81106106e1576106e0610ded565b5b0154888260ff16600a81106106f9576106f8610ded565b5b6020020181815250506000878260ff16600a811061071a57610719610ded565b5b602002019060ff16908160ff16815250506107b2565b600e60008260ff1660ff168152602001908152602001600020549350849250600e60008260ff1660ff16815260200190815260200160002054888260ff16600a811061077f5761077e610ded565b5b6020020181815250506001878260ff16600a81106107a05761079f610ded565b5b602002019060ff16908160ff16815250505b84600e60008360ff1660ff1681526020019081526020016000208190555083826000600281106107e5576107e4610ded565b5b602002018181525050828260016002811061080357610802610ded565b5b6020020181815250506000600b60009054906101000a900473ffffffffffffffffffffffffffffffffffffffff1673ffffffffffffffffffffffffffffffffffffffff1663d622e5a4620249f0858e6040518463ffffffff1660e01b815260040161086f929190611552565b6020604051808303818786fa15801561088c573d6000803e3d6000fd5b50505050506040513d601f19601f820116820180604052508101906108b19190611590565b90508095506002876108c391906115bd565b96505080806108d1906115ee565b91505061067b565b508397506001600d60008a815260200190815260200160002060006101000a81548160ff0219169083151502179055506001600c600082825461091c9190611617565b925050819055506001601060008b815260200190815260200160002060006101000a81548160ff0219169083151502179055507fd3289bf72eda602ff51982cb09629e9971cbf8f657f973f1a071902ba85924568888886040516109829392919061177a565b60405180910390a1505050505050505050565b604051806101400160405280600a90602082028036833780820191505090505090565b604051806101400160405280600a90602082028036833780820191505090505090565b6040518060400160405280600290602082028036833780820191505090505090565b6000819050919050565b610a10816109fd565b82525050565b6000602082019050610a2b6000830184610a07565b92915050565b6000604051905090565b600080fd5b610a49816109fd565b8114610a5457600080fd5b50565b600081359050610a6681610a40565b92915050565b600060208284031215610a8257610a81610a3b565b5b6000610a9084828501610a57565b91505092915050565b60008115159050919050565b610aae81610a99565b82525050565b6000602082019050610ac96000830184610aa5565b92915050565b600060ff82169050919050565b610ae581610acf565b82525050565b6000602082019050610b006000830184610adc565b92915050565b600080fd5b6000601f19601f8301169050919050565b7f4e487b7100000000000000000000000000000000000000000000000000000000600052604160045260246000fd5b610b5482610b0b565b810181811067ffffffffffffffff82111715610b7357610b72610b1c565b5b80604052505050565b6000610b86610a31565b9050610b928282610b4b565b919050565b600067ffffffffffffffff821115610bb257610bb1610b1c565b5b602082029050919050565b600080fd5b6000610bd5610bd084610b97565b610b7c565b90508060208402830185811115610bef57610bee610bbd565b5b835b81811015610c185780610c048882610a57565b845260208401935050602081019050610bf1565b5050509392505050565b600082601f830112610c3757610c36610b06565b5b6002610c44848285610bc2565b91505092915050565b600067ffffffffffffffff821115610c6857610c67610b1c565b5b602082029050919050565b6000610c86610c8184610c4d565b610b7c565b90508060408402830185811115610ca057610c9f610bbd565b5b835b81811015610cc95780610cb58882610c22565b845260208401935050604081019050610ca2565b5050509392505050565b600082601f830112610ce857610ce7610b06565b5b6002610cf5848285610c73565b91505092915050565b600073ffffffffffffffffffffffffffffffffffffffff82169050919050565b6000610d2982610cfe565b9050919050565b610d3981610d1e565b8114610d4457600080fd5b50565b600081359050610d5681610d30565b92915050565b6000806000806000806101808789031215610d7a57610d79610a3b565b5b6000610d8889828a01610c22565b9650506040610d9989828a01610cd3565b95505060c0610daa89828a01610c22565b945050610100610dbc89828a01610c22565b935050610140610dce89828a01610d47565b925050610160610de089828a01610a57565b9150509295509295509295565b7f4e487b7100000000000000000000000000000000000000000000000000000000600052603260045260246000fd5b600082825260208201905092915050565b7f4e756c6c69666965724861736820736f6573206e6f7420657869747300000000600082015250565b6000610e63601c83610e1c565b9150610e6e82610e2d565b602082019050919050565b60006020820190508181036000830152610e9281610e56565b9050919050565b7f6e6f742d726f6f74000000000000000000000000000000000000000000000000600082015250565b6000610ecf600883610e1c565b9150610eda82610e99565b602082019050919050565b60006020820190508181036000830152610efe81610ec2565b9050919050565b600060029050919050565b600081905092915050565b6000819050919050565b610f2e816109fd565b82525050565b6000610f408383610f25565b60208301905092915050565b6000602082019050919050565b610f6281610f05565b610f6c8184610f10565b9250610f7782610f1b565b8060005b83811015610fa8578151610f8f8782610f34565b9650610f9a83610f4c565b925050600181019050610f7b565b505050505050565b600060029050919050565b600081905092915050565b6000819050919050565b600081905092915050565b610fe481610f05565b610fee8184610fd0565b9250610ff982610f1b565b8060005b8381101561102a5781516110118782610f34565b965061101c83610f4c565b925050600181019050610ffd565b505050505050565b600061103e8383610fdb565b60408301905092915050565b6000602082019050919050565b61106081610fb0565b61106a8184610fbb565b925061107582610fc6565b8060005b838110156110a657815161108d8782611032565b96506110988361104a565b925050600181019050611079565b505050505050565b600060039050919050565b600081905092915050565b6000819050919050565b6000602082019050919050565b6110e4816110ae565b6110ee81846110b9565b92506110f9826110c4565b8060005b8381101561112a5781516111118782610f34565b965061111c836110ce565b9250506001810190506110fd565b505050505050565b6000610160820190506111486000830187610f59565b6111556040830186611057565b61116260c0830185610f59565b6111706101008301846110db565b95945050505050565b600081519050919050565b600081905092915050565b60005b838110156111ad578082015181840152602081019050611192565b60008484015250505050565b60006111c482611179565b6111ce8185611184565b93506111de81856020860161118f565b80840191505092915050565b60006111f682846111b9565b915081905092915050565b7f696e76616c69642d70726f6f6600000000000000000000000000000000000000600082015250565b6000611237600d83610e1c565b915061124282611201565b602082019050919050565b600060208201905081810360008301526112668161122a565b9050919050565b7f4475706c696361746520636f6d6d69746d656e7420686173682e000000000000600082015250565b60006112a3601a83610e1c565b91506112ae8261126d565b602082019050919050565b600060208201905081810360008301526112d281611296565b9050919050565b7f4e487b7100000000000000000000000000000000000000000000000000000000600052601160045260246000fd5b60008160011c9050919050565b6000808291508390505b600185111561135f5780860481111561133b5761133a6112d9565b5b600185161561134a5780820291505b808102905061135885611308565b945061131f565b94509492505050565b6000826113785760019050611434565b816113865760009050611434565b816001811461139c57600281146113a6576113d5565b6001915050611434565b60ff8411156113b8576113b76112d9565b5b8360020a9150848211156113cf576113ce6112d9565b5b50611434565b5060208310610133831016604e8410600b841016171561140a5782820a905083811115611405576114046112d9565b5b611434565b6114178484846001611315565b9250905081840481111561142e5761142d6112d9565b5b81810290505b9392505050565b6000611446826109fd565b915061145183610acf565b925061147e7fffffffffffffffffffffffffffffffffffffffffffffffffffffffffffffffff8484611368565b905092915050565b7f547265652066756c6c0000000000000000000000000000000000000000000000600082015250565b60006114bc600983610e1c565b91506114c782611486565b602082019050919050565b600060208201905081810360008301526114eb816114af565b9050919050565b7f4e487b7100000000000000000000000000000000000000000000000000000000600052601260045260246000fd5b600061152c826109fd565b9150611537836109fd565b925082611547576115466114f2565b5b828206905092915050565b60006060820190506115676000830185610f59565b6115746040830184610a07565b9392505050565b60008151905061158a81610a40565b92915050565b6000602082840312156115a6576115a5610a3b565b5b60006115b48482850161157b565b91505092915050565b60006115c8826109fd565b91506115d3836109fd565b9250826115e3576115e26114f2565b5b828204905092915050565b60006115f982610acf565b915060ff820361160c5761160b6112d9565b5b600182019050919050565b6000611622826109fd565b915061162d836109fd565b9250828201905080821115611645576116446112d9565b5b92915050565b6000600a9050919050565b600081905092915050565b6000819050919050565b6000602082019050919050565b6116818161164b565b61168b8184611656565b925061169682611661565b8060005b838110156116c75781516116ae8782610f34565b96506116b98361166b565b92505060018101905061169a565b505050505050565b6000600a9050919050565b600081905092915050565b6000819050919050565b6116f881610acf565b82525050565b600061170a83836116ef565b60208301905092915050565b6000602082019050919050565b61172c816116cf565b61173681846116da565b9250611741826116e5565b8060005b8381101561177257815161175987826116fe565b965061176483611716565b925050600181019050611745565b505050505050565b60006102a0820190506117906000830186610a07565b61179d6020830185611678565b6117ab610160830184611723565b94935050505056fea26469706673582212208dedd38c7e9431768fdca6cb8e769aa7d16b98abbad907874043ff71c582c42e64736f6c63430008110033",
  "devdoc": {
    "kind": "dev",
    "methods": {},
    "version": 1
  },
  "userdoc": {
    "kind": "user",
    "methods": {},
    "version": 1
  },
  "storageLayout": {
    "storage": [
      {
        "astId": 829,
        "contract": "contracts/zkContract.sol:ZkContract",
        "label": "levelDefaults",
        "offset": 0,
        "slot": "0",
        "type": "t_array(t_uint256)10_storage"
      },
      {
        "astId": 849,
        "contract": "contracts/zkContract.sol:ZkContract",
        "label": "verifier",
        "offset": 0,
        "slot": "10",
        "type": "t_address"
      },
      {
        "astId": 852,
        "contract": "contracts/zkContract.sol:ZkContract",
        "label": "hasher",
        "offset": 0,
        "slot": "11",
        "type": "t_contract(Hasher)264"
      },
      {
        "astId": 855,
        "contract": "contracts/zkContract.sol:ZkContract",
        "label": "treeLevel",
        "offset": 20,
        "slot": "11",
        "type": "t_uint8"
      },
      {
        "astId": 858,
        "contract": "contracts/zkContract.sol:ZkContract",
        "label": "nextLeafIdx",
        "offset": 0,
        "slot": "12",
        "type": "t_uint256"
      },
      {
        "astId": 862,
        "contract": "contracts/zkContract.sol:ZkContract",
        "label": "roots",
        "offset": 0,
        "slot": "13",
        "type": "t_mapping(t_uint256,t_bool)"
      },
      {
        "astId": 866,
        "contract": "contracts/zkContract.sol:ZkContract",
        "label": "lastLevelHash",
        "offset": 0,
        "slot": "14",
        "type": "t_mapping(t_uint8,t_uint256)"
      },
      {
        "astId": 870,
        "contract": "contracts/zkContract.sol:ZkContract",
        "label": "nullExists",
        "offset": 0,
        "slot": "15",
        "type": "t_mapping(t_uint256,t_bool)"
      },
      {
        "astId": 874,
        "contract": "contracts/zkContract.sol:ZkContract",
        "label": "comExists",
        "offset": 0,
        "slot": "16",
        "type": "t_mapping(t_uint256,t_bool)"
      }
    ],
    "types": {
      "t_address": {
        "encoding": "inplace",
        "label": "address",
        "numberOfBytes": "20"
      },
      "t_array(t_uint256)10_storage": {
        "base": "t_uint256",
        "encoding": "inplace",
        "label": "uint256[10]",
        "numberOfBytes": "320"
      },
      "t_bool": {
        "encoding": "inplace",
        "label": "bool",
        "numberOfBytes": "1"
      },
      "t_contract(Hasher)264": {
        "encoding": "inplace",
        "label": "contract Hasher",
        "numberOfBytes": "20"
      },
      "t_mapping(t_uint256,t_bool)": {
        "encoding": "mapping",
        "key": "t_uint256",
        "label": "mapping(uint256 => bool)",
        "numberOfBytes": "32",
        "value": "t_bool"
      },
      "t_mapping(t_uint8,t_uint256)": {
        "encoding": "mapping",
        "key": "t_uint8",
        "label": "mapping(uint8 => uint256)",
        "numberOfBytes": "32",
        "value": "t_uint256"
      },
      "t_uint256": {
        "encoding": "inplace",
        "label": "uint256",
        "numberOfBytes": "32"
      },
      "t_uint8": {
        "encoding": "inplace",
        "label": "uint8",
        "numberOfBytes": "1"
      }
    }
  }
}