{
  "address": "0x9e7c24FDc87Ff372Ab8B3051523330a8b9f33b95",
  "abi": [
    {
      "inputs": [],
      "stateMutability": "nonpayable",
      "type": "constructor"
    },
    {
      "anonymous": false,
      "inputs": [
        {
          "indexed": true,
          "internalType": "uint256",
          "name": "tokenID",
          "type": "uint256"
        }
      ],
      "name": "MetadataUpdate",
      "type": "event"
    },
    {
      "anonymous": false,
      "inputs": [
        {
          "indexed": true,
          "internalType": "uint256",
          "name": "from",
          "type": "uint256"
        },
        {
          "indexed": true,
          "internalType": "uint256",
          "name": "to",
          "type": "uint256"
        },
        {
          "indexed": true,
          "internalType": "uint256",
          "name": "tokenID",
          "type": "uint256"
        }
      ],
      "name": "NFTTransfered",
      "type": "event"
    },
    {
      "inputs": [
        {
          "internalType": "uint256",
          "name": "_tokenID",
          "type": "uint256"
        },
        {
          "internalType": "address",
          "name": "op",
          "type": "address"
        }
      ],
      "name": "approve",
      "outputs": [],
      "stateMutability": "nonpayable",
      "type": "function"
    },
    {
      "inputs": [
        {
          "internalType": "uint256",
          "name": "commitment",
          "type": "uint256"
        },
        {
          "internalType": "string",
          "name": "tokenURI",
          "type": "string"
        }
      ],
      "name": "createNFT",
      "outputs": [],
      "stateMutability": "nonpayable",
      "type": "function"
    },
    {
      "inputs": [
        {
          "internalType": "uint256",
          "name": "_tokenID",
          "type": "uint256"
        }
      ],
      "name": "getApprovedAdd",
      "outputs": [
        {
          "internalType": "address",
          "name": "",
          "type": "address"
        }
      ],
      "stateMutability": "view",
      "type": "function"
    },
    {
      "inputs": [],
      "name": "getNumberOfTokens",
      "outputs": [
        {
          "internalType": "uint256",
          "name": "",
          "type": "uint256"
        }
      ],
      "stateMutability": "view",
      "type": "function"
    },
    {
      "inputs": [
        {
          "internalType": "uint256",
          "name": "commitment",
          "type": "uint256"
        }
      ],
      "name": "getProof",
      "outputs": [
        {
          "components": [
            {
              "internalType": "uint256[2]",
              "name": "a",
              "type": "uint256[2]"
            },
            {
              "internalType": "uint256[2][2]",
              "name": "b",
              "type": "uint256[2][2]"
            },
            {
              "internalType": "uint256[2]",
              "name": "c",
              "type": "uint256[2]"
            },
            {
              "internalType": "uint256[2]",
              "name": "input",
              "type": "uint256[2]"
            }
          ],
          "internalType": "struct zkNFT.proof",
          "name": "",
          "type": "tuple"
        }
      ],
      "stateMutability": "view",
      "type": "function"
    },
    {
      "inputs": [],
      "name": "name",
      "outputs": [
        {
          "internalType": "string",
          "name": "",
          "type": "string"
        }
      ],
      "stateMutability": "view",
      "type": "function"
    },
    {
      "inputs": [
        {
          "internalType": "uint256",
          "name": "_tokenID",
          "type": "uint256"
        }
      ],
      "name": "ownerOf",
      "outputs": [
        {
          "internalType": "uint256",
          "name": "",
          "type": "uint256"
        }
      ],
      "stateMutability": "view",
      "type": "function"
    },
    {
      "inputs": [
        {
          "internalType": "uint256",
          "name": "commitment",
          "type": "uint256"
        },
        {
          "components": [
            {
              "internalType": "uint256[2]",
              "name": "a",
              "type": "uint256[2]"
            },
            {
              "internalType": "uint256[2][2]",
              "name": "b",
              "type": "uint256[2][2]"
            },
            {
              "internalType": "uint256[2]",
              "name": "c",
              "type": "uint256[2]"
            },
            {
              "internalType": "uint256[2]",
              "name": "input",
              "type": "uint256[2]"
            }
          ],
          "internalType": "struct zkNFT.proof",
          "name": "pr",
          "type": "tuple"
        }
      ],
      "name": "setProof",
      "outputs": [],
      "stateMutability": "nonpayable",
      "type": "function"
    },
    {
      "inputs": [],
      "name": "symbol",
      "outputs": [
        {
          "internalType": "string",
          "name": "",
          "type": "string"
        }
      ],
      "stateMutability": "view",
      "type": "function"
    },
    {
      "inputs": [
        {
          "internalType": "uint256",
          "name": "ownerCom",
          "type": "uint256"
        },
        {
          "internalType": "uint256",
          "name": "buyerCom",
          "type": "uint256"
        },
        {
          "internalType": "address",
          "name": "buyer",
          "type": "address"
        },
        {
          "internalType": "uint256",
          "name": "_tokenID",
          "type": "uint256"
        }
      ],
      "name": "transferFrom",
      "outputs": [],
      "stateMutability": "nonpayable",
      "type": "function"
    },
    {
      "inputs": [
        {
          "internalType": "uint256",
          "name": "_tokenID",
          "type": "uint256"
        },
        {
          "internalType": "uint256",
          "name": "commitment",
          "type": "uint256"
        },
        {
          "internalType": "address",
          "name": "buyer",
          "type": "address"
        }
      ],
      "name": "transferNFT",
      "outputs": [],
      "stateMutability": "nonpayable",
      "type": "function"
    }
  ],
  "transactionHash": "0x4c7f8b1413bf555d13b56fcb205f884cfb31b1b8a09eb34f8098840e1b214cf2",
  "args": [],
  "numDeployments": 1,
  "solcInputHash": "28fdc8a0ed6f0e2bffc46ea124794e96",
  "bytecode": "0x60806040526040518060400160405280600481526020017f7a6b4d5000000000000000000000000000000000000000000000000000000000815250600790816200004a919062000328565b506040518060400160405280600181526020017f5a000000000000000000000000000000000000000000000000000000000000008152506008908162000091919062000328565b503480156200009f57600080fd5b5060006009819055506200040f565b600081519050919050565b7f4e487b7100000000000000000000000000000000000000000000000000000000600052604160045260246000fd5b7f4e487b7100000000000000000000000000000000000000000000000000000000600052602260045260246000fd5b600060028204905060018216806200013057607f821691505b602082108103620001465762000145620000e8565b5b50919050565b60008190508160005260206000209050919050565b60006020601f8301049050919050565b600082821b905092915050565b600060088302620001b07fffffffffffffffffffffffffffffffffffffffffffffffffffffffffffffffff8262000171565b620001bc868362000171565b95508019841693508086168417925050509392505050565b6000819050919050565b6000819050919050565b60006200020962000203620001fd84620001d4565b620001de565b620001d4565b9050919050565b6000819050919050565b6200022583620001e8565b6200023d620002348262000210565b8484546200017e565b825550505050565b600090565b6200025462000245565b620002618184846200021a565b505050565b5b8181101562000289576200027d6000826200024a565b60018101905062000267565b5050565b601f821115620002d857620002a2816200014c565b620002ad8462000161565b81016020851015620002bd578190505b620002d5620002cc8562000161565b83018262000266565b50505b505050565b600082821c905092915050565b6000620002fd60001984600802620002dd565b1980831691505092915050565b6000620003188383620002ea565b9150826002028217905092915050565b6200033382620000ae565b67ffffffffffffffff8111156200034f576200034e620000b9565b5b6200035b825462000117565b620003688282856200028d565b600060209050601f831160018114620003a057600084156200038b578287015190505b6200039785826200030a565b86555062000407565b601f198416620003b0866200014c565b60005b82811015620003da57848901518255600182019150602085019450602081019050620003b3565b86831015620003fa5784890151620003f6601f891682620002ea565b8355505b6001600288020188555050505b505050505050565b611ab0806200041f6000396000f3fe608060405234801561001057600080fd5b50600436106100a95760003560e01c806395d89b411161007157806395d89b4114610164578063a50348dc14610182578063d78092521461019e578063efeecb51146101ce578063f32b5124146101ec578063febe490914610208576100a9565b806306fdde03146100ae57806311149ada146100cc5780636352211e146100fc5780638894c4461461012c57806390dece7514610148575b600080fd5b6100b6610224565b6040516100c39190610d86565b60405180910390f35b6100e660048036038101906100e19190610df2565b6102b6565b6040516100f39190610fbd565b60405180910390f35b61011660048036038101906101119190610df2565b61042f565b6040516101239190610fe8565b60405180910390f35b61014660048036038101906101419190611061565b61044c565b005b610162600480360381019061015d919061131a565b6105d7565b005b61016c610652565b6040516101799190610d86565b60405180910390f35b61019c6004803603810190610197919061135b565b6106e4565b005b6101b860048036038101906101b39190610df2565b610801565b6040516101c591906113d1565b60405180910390f35b6101d661083e565b6040516101e39190610fe8565b60405180910390f35b610206600480360381019061020191906114a1565b610848565b005b610222600480360381019061021d91906114fd565b61087e565b005b6060600780546102339061156c565b80601f016020809104026020016040519081016040528092919081815260200182805461025f9061156c565b80156102ac5780601f10610281576101008083540402835291602001916102ac565b820191906000526020600020905b81548152906001019060200180831161028f57829003601f168201915b5050505050905090565b6102be610b88565b6006600083815260200190815260200160002060405180608001604052908160008201600280602002604051908101604052809291908260028015610318576020028201915b815481526020019060010190808311610304575b5050505050815260200160028201600280602002604051908101604052809291906000905b8282101561039657838260020201600280602002604051908101604052809291908260028015610382576020028201915b81548152602001906001019080831161036e575b50505050508152602001906001019061033d565b505050508152602001600682016002806020026040519081016040528092919082600280156103da576020028201915b8154815260200190600101908083116103c6575b505050505081526020016008820160028060200260405190810160405280929190826002801561041f576020028201915b81548152602001906001019080831161040b575b5050505050815250509050919050565b600060036000838152602001908152602001600020549050919050565b60006003600085815260200190815260200160002054905060006001600083815260200190815260200160002060009054906101000a900473ffffffffffffffffffffffffffffffffffffffff169050600360008681526020019081526020016000206000905560006001600260008473ffffffffffffffffffffffffffffffffffffffff1673ffffffffffffffffffffffffffffffffffffffff1681526020019081526020016000205461050191906115cc565b90506000808373ffffffffffffffffffffffffffffffffffffffff1673ffffffffffffffffffffffffffffffffffffffff1681526020019081526020016000206000828152602001908152602001600020600090556001600260008473ffffffffffffffffffffffffffffffffffffffff1673ffffffffffffffffffffffffffffffffffffffff16815260200190815260200160002060008282546105a691906115cc565b925050819055506105b78486610994565b846003600088815260200190815260200160002081905550505050505050565b8060066000848152602001908152602001600020600082015181600001906002610602929190610bc8565b5060208201518160020190600261061a929190610c08565b50604082015181600601906002610632929190610bc8565b5060608201518160080190600261064a929190610bc8565b509050505050565b6060600880546106619061156c565b80601f016020809104026020016040519081016040528092919081815260200182805461068d9061156c565b80156106da5780601f106106af576101008083540402835291602001916106da565b820191906000526020600020905b8154815290600101906020018083116106bd57829003601f168201915b5050505050905090565b3373ffffffffffffffffffffffffffffffffffffffff1661070482610801565b73ffffffffffffffffffffffffffffffffffffffff161461075a576040517f08c379a00000000000000000000000000000000000000000000000000000000081526004016107519061164c565b60405180910390fd5b8360405160200161076b919061168d565b6040516020818303038152906040528051906020012061078a8261042f565b60405160200161079a919061168d565b60405160208183030381529060405280519060200120146107f0576040517f08c379a00000000000000000000000000000000000000000000000000000000081526004016107e7906116f4565b60405180910390fd5b6107fb81848461044c565b50505050565b60006005600083815260200190815260200160002060009054906101000a900473ffffffffffffffffffffffffffffffffffffffff169050919050565b6000600954905090565b60003390506108578184610994565b6108618383610ada565b6009600081548092919061087490611714565b9190505550505050565b60006003600084815260200190815260200160002054905060006001600083815260200190815260200160002060009054906101000a900473ffffffffffffffffffffffffffffffffffffffff1690508073ffffffffffffffffffffffffffffffffffffffff168373ffffffffffffffffffffffffffffffffffffffff160361093c576040517f08c379a0000000000000000000000000000000000000000000000000000000008152600401610933906117a8565b60405180910390fd5b826005600086815260200190815260200160002060006101000a81548173ffffffffffffffffffffffffffffffffffffffff021916908373ffffffffffffffffffffffffffffffffffffffff16021790555050505050565b816001600083815260200190815260200160002060006101000a81548173ffffffffffffffffffffffffffffffffffffffff021916908373ffffffffffffffffffffffffffffffffffffffff1602179055506000600260008473ffffffffffffffffffffffffffffffffffffffff1673ffffffffffffffffffffffffffffffffffffffff168152602001908152602001600020549050816000808573ffffffffffffffffffffffffffffffffffffffff1673ffffffffffffffffffffffffffffffffffffffff1681526020019081526020016000206000838152602001908152602001600020819055506001600260008573ffffffffffffffffffffffffffffffffffffffff1673ffffffffffffffffffffffffffffffffffffffff1681526020019081526020016000206000828254610ace91906117c8565b92505081905550505050565b8160036000600954815260200190815260200160002081905550610b0060095482610b36565b6009548260007fb12d87e4ee7f2fb6d2b85a4b7875bc64a51a45e85c452f968ce17e9ef133b93860405160405180910390a45050565b80600460008481526020019081526020016000209081610b5691906119a8565b50817ff8e1a15aba9398e019f0b49df1a4fde98ee17ae345cb5f6b5e2c27f5033e8ce760405160405180910390a25050565b6040518060800160405280610b9b610c58565b8152602001610ba8610c7a565b8152602001610bb5610c58565b8152602001610bc2610c58565b81525090565b8260028101928215610bf7579160200282015b82811115610bf6578251825591602001919060010190610bdb565b5b509050610c049190610ca7565b5090565b82600280028101928215610c47579160200282015b82811115610c4657825182906002610c36929190610bc8565b5091602001919060020190610c1d565b5b509050610c549190610cc4565b5090565b6040518060400160405280600290602082028036833780820191505090505090565b60405180604001604052806002905b610c91610c58565b815260200190600190039081610c895790505090565b5b80821115610cc0576000816000905550600101610ca8565b5090565b5b80821115610ce45760008181610cdb9190610ce8565b50600201610cc5565b5090565b506000815560010160009055565b600081519050919050565b600082825260208201905092915050565b60005b83811015610d30578082015181840152602081019050610d15565b60008484015250505050565b6000601f19601f8301169050919050565b6000610d5882610cf6565b610d628185610d01565b9350610d72818560208601610d12565b610d7b81610d3c565b840191505092915050565b60006020820190508181036000830152610da08184610d4d565b905092915050565b6000604051905090565b600080fd5b600080fd5b6000819050919050565b610dcf81610dbc565b8114610dda57600080fd5b50565b600081359050610dec81610dc6565b92915050565b600060208284031215610e0857610e07610db2565b5b6000610e1684828501610ddd565b91505092915050565b600060029050919050565b600081905092915050565b6000819050919050565b610e4881610dbc565b82525050565b6000610e5a8383610e3f565b60208301905092915050565b6000602082019050919050565b610e7c81610e1f565b610e868184610e2a565b9250610e9182610e35565b8060005b83811015610ec2578151610ea98782610e4e565b9650610eb483610e66565b925050600181019050610e95565b505050505050565b600060029050919050565b600081905092915050565b6000819050919050565b6000610ef68383610e73565b60408301905092915050565b6000602082019050919050565b610f1881610eca565b610f228184610ed5565b9250610f2d82610ee0565b8060005b83811015610f5e578151610f458782610eea565b9650610f5083610f02565b925050600181019050610f31565b505050505050565b61014082016000820151610f7d6000850182610e73565b506020820151610f906040850182610f0f565b506040820151610fa360c0850182610e73565b506060820151610fb7610100850182610e73565b50505050565b600061014082019050610fd36000830184610f66565b92915050565b610fe281610dbc565b82525050565b6000602082019050610ffd6000830184610fd9565b92915050565b600073ffffffffffffffffffffffffffffffffffffffff82169050919050565b600061102e82611003565b9050919050565b61103e81611023565b811461104957600080fd5b50565b60008135905061105b81611035565b92915050565b60008060006060848603121561107a57611079610db2565b5b600061108886828701610ddd565b935050602061109986828701610ddd565b92505060406110aa8682870161104c565b9150509250925092565b600080fd5b7f4e487b7100000000000000000000000000000000000000000000000000000000600052604160045260246000fd5b6110f182610d3c565b810181811067ffffffffffffffff821117156111105761110f6110b9565b5b80604052505050565b6000611123610da8565b905061112f82826110e8565b919050565b600080fd5b600067ffffffffffffffff821115611154576111536110b9565b5b602082029050919050565b600080fd5b600061117761117284611139565b611119565b905080602084028301858111156111915761119061115f565b5b835b818110156111ba57806111a68882610ddd565b845260208401935050602081019050611193565b5050509392505050565b600082601f8301126111d9576111d8611134565b5b60026111e6848285611164565b91505092915050565b600067ffffffffffffffff82111561120a576112096110b9565b5b602082029050919050565b6000611228611223846111ef565b611119565b905080604084028301858111156112425761124161115f565b5b835b8181101561126b578061125788826111c4565b845260208401935050604081019050611244565b5050509392505050565b600082601f83011261128a57611289611134565b5b6002611297848285611215565b91505092915050565b600061014082840312156112b7576112b66110b4565b5b6112c16080611119565b905060006112d1848285016111c4565b60008301525060406112e584828501611275565b60208301525060c06112f9848285016111c4565b60408301525061010061130e848285016111c4565b60608301525092915050565b600080610160838503121561133257611331610db2565b5b600061134085828601610ddd565b9250506020611351858286016112a0565b9150509250929050565b6000806000806080858703121561137557611374610db2565b5b600061138387828801610ddd565b945050602061139487828801610ddd565b93505060406113a58782880161104c565b92505060606113b687828801610ddd565b91505092959194509250565b6113cb81611023565b82525050565b60006020820190506113e660008301846113c2565b92915050565b600080fd5b600067ffffffffffffffff82111561140c5761140b6110b9565b5b61141582610d3c565b9050602081019050919050565b82818337600083830152505050565b600061144461143f846113f1565b611119565b9050828152602081018484840111156114605761145f6113ec565b5b61146b848285611422565b509392505050565b600082601f83011261148857611487611134565b5b8135611498848260208601611431565b91505092915050565b600080604083850312156114b8576114b7610db2565b5b60006114c685828601610ddd565b925050602083013567ffffffffffffffff8111156114e7576114e6610db7565b5b6114f385828601611473565b9150509250929050565b6000806040838503121561151457611513610db2565b5b600061152285828601610ddd565b92505060206115338582860161104c565b9150509250929050565b7f4e487b7100000000000000000000000000000000000000000000000000000000600052602260045260246000fd5b6000600282049050600182168061158457607f821691505b6020821081036115975761159661153d565b5b50919050565b7f4e487b7100000000000000000000000000000000000000000000000000000000600052601160045260246000fd5b60006115d782610dbc565b91506115e283610dbc565b92508282039050818111156115fa576115f961159d565b5b92915050565b7f4e6f20617070726f76656420746f206d616b6520746869732063616c6c000000600082015250565b6000611636601d83610d01565b915061164182611600565b602082019050919050565b6000602082019050818103600083015261166581611629565b9050919050565b6000819050919050565b61168761168282610dbc565b61166c565b82525050565b60006116998284611676565b60208201915081905092915050565b7f496e76616c696420636f6d696669657220686173680000000000000000000000600082015250565b60006116de601583610d01565b91506116e9826116a8565b602082019050919050565b6000602082019050818103600083015261170d816116d1565b9050919050565b600061171f82610dbc565b91507fffffffffffffffffffffffffffffffffffffffffffffffffffffffffffffffff82036117515761175061159d565b5b600182019050919050565b7f496e76616c6964206f70657261746f7220616464726573730000000000000000600082015250565b6000611792601883610d01565b915061179d8261175c565b602082019050919050565b600060208201905081810360008301526117c181611785565b9050919050565b60006117d382610dbc565b91506117de83610dbc565b92508282019050808211156117f6576117f561159d565b5b92915050565b60008190508160005260206000209050919050565b60006020601f8301049050919050565b600082821b905092915050565b60006008830261185e7fffffffffffffffffffffffffffffffffffffffffffffffffffffffffffffffff82611821565b6118688683611821565b95508019841693508086168417925050509392505050565b6000819050919050565b60006118a56118a061189b84610dbc565b611880565b610dbc565b9050919050565b6000819050919050565b6118bf8361188a565b6118d36118cb826118ac565b84845461182e565b825550505050565b600090565b6118e86118db565b6118f38184846118b6565b505050565b5b818110156119175761190c6000826118e0565b6001810190506118f9565b5050565b601f82111561195c5761192d816117fc565b61193684611811565b81016020851015611945578190505b61195961195185611811565b8301826118f8565b50505b505050565b600082821c905092915050565b600061197f60001984600802611961565b1980831691505092915050565b6000611998838361196e565b9150826002028217905092915050565b6119b182610cf6565b67ffffffffffffffff8111156119ca576119c96110b9565b5b6119d4825461156c565b6119df82828561191b565b600060209050601f831160018114611a125760008415611a00578287015190505b611a0a858261198c565b865550611a72565b601f198416611a20866117fc565b60005b82811015611a4857848901518255600182019150602085019450602081019050611a23565b86831015611a655784890151611a61601f89168261196e565b8355505b6001600288020188555050505b50505050505056fea264697066735822122081e533c93485a2f7aba42a4ea4c8196043d3ce3bbf1512c7cbfa51da096569d764736f6c63430008110033",
  "devdoc": {
    "kind": "dev",
    "methods": {},
    "version": 1
  },
  "userdoc": {
    "kind": "user",
    "methods": {},
    "version": 1
  },
  "storageLayout": {
    "storage": [
      {
        "astId": 1311,
        "contract": "contracts/zkNFT.sol:zkNFT",
        "label": "addToCom",
        "offset": 0,
        "slot": "0",
        "type": "t_mapping(t_address,t_mapping(t_uint256,t_uint256))"
      },
      {
        "astId": 1315,
        "contract": "contracts/zkNFT.sol:zkNFT",
        "label": "comToAdd",
        "offset": 0,
        "slot": "1",
        "type": "t_mapping(t_uint256,t_address)"
      },
      {
        "astId": 1319,
        "contract": "contracts/zkNFT.sol:zkNFT",
        "label": "noOfComs",
        "offset": 0,
        "slot": "2",
        "type": "t_mapping(t_address,t_uint256)"
      },
      {
        "astId": 1323,
        "contract": "contracts/zkNFT.sol:zkNFT",
        "label": "owners",
        "offset": 0,
        "slot": "3",
        "type": "t_mapping(t_uint256,t_uint256)"
      },
      {
        "astId": 1327,
        "contract": "contracts/zkNFT.sol:zkNFT",
        "label": "tokenURIs",
        "offset": 0,
        "slot": "4",
        "type": "t_mapping(t_uint256,t_string_storage)"
      },
      {
        "astId": 1331,
        "contract": "contracts/zkNFT.sol:zkNFT",
        "label": "tokenIDToAdd",
        "offset": 0,
        "slot": "5",
        "type": "t_mapping(t_uint256,t_address)"
      },
      {
        "astId": 1336,
        "contract": "contracts/zkNFT.sol:zkNFT",
        "label": "mapProof",
        "offset": 0,
        "slot": "6",
        "type": "t_mapping(t_uint256,t_struct(proof)1305_storage)"
      },
      {
        "astId": 1339,
        "contract": "contracts/zkNFT.sol:zkNFT",
        "label": "_name",
        "offset": 0,
        "slot": "7",
        "type": "t_string_storage"
      },
      {
        "astId": 1342,
        "contract": "contracts/zkNFT.sol:zkNFT",
        "label": "_symbol",
        "offset": 0,
        "slot": "8",
        "type": "t_string_storage"
      },
      {
        "astId": 1344,
        "contract": "contracts/zkNFT.sol:zkNFT",
        "label": "tokenID",
        "offset": 0,
        "slot": "9",
        "type": "t_uint256"
      }
    ],
    "types": {
      "t_address": {
        "encoding": "inplace",
        "label": "address",
        "numberOfBytes": "20"
      },
      "t_array(t_array(t_uint256)2_storage)2_storage": {
        "base": "t_array(t_uint256)2_storage",
        "encoding": "inplace",
        "label": "uint256[2][2]",
        "numberOfBytes": "128"
      },
      "t_array(t_uint256)2_storage": {
        "base": "t_uint256",
        "encoding": "inplace",
        "label": "uint256[2]",
        "numberOfBytes": "64"
      },
      "t_mapping(t_address,t_mapping(t_uint256,t_uint256))": {
        "encoding": "mapping",
        "key": "t_address",
        "label": "mapping(address => mapping(uint256 => uint256))",
        "numberOfBytes": "32",
        "value": "t_mapping(t_uint256,t_uint256)"
      },
      "t_mapping(t_address,t_uint256)": {
        "encoding": "mapping",
        "key": "t_address",
        "label": "mapping(address => uint256)",
        "numberOfBytes": "32",
        "value": "t_uint256"
      },
      "t_mapping(t_uint256,t_address)": {
        "encoding": "mapping",
        "key": "t_uint256",
        "label": "mapping(uint256 => address)",
        "numberOfBytes": "32",
        "value": "t_address"
      },
      "t_mapping(t_uint256,t_string_storage)": {
        "encoding": "mapping",
        "key": "t_uint256",
        "label": "mapping(uint256 => string)",
        "numberOfBytes": "32",
        "value": "t_string_storage"
      },
      "t_mapping(t_uint256,t_struct(proof)1305_storage)": {
        "encoding": "mapping",
        "key": "t_uint256",
        "label": "mapping(uint256 => struct zkNFT.proof)",
        "numberOfBytes": "32",
        "value": "t_struct(proof)1305_storage"
      },
      "t_mapping(t_uint256,t_uint256)": {
        "encoding": "mapping",
        "key": "t_uint256",
        "label": "mapping(uint256 => uint256)",
        "numberOfBytes": "32",
        "value": "t_uint256"
      },
      "t_string_storage": {
        "encoding": "bytes",
        "label": "string",
        "numberOfBytes": "32"
      },
      "t_struct(proof)1305_storage": {
        "encoding": "inplace",
        "label": "struct zkNFT.proof",
        "members": [
          {
            "astId": 1290,
            "contract": "contracts/zkNFT.sol:zkNFT",
            "label": "a",
            "offset": 0,
            "slot": "0",
            "type": "t_array(t_uint256)2_storage"
          },
          {
            "astId": 1296,
            "contract": "contracts/zkNFT.sol:zkNFT",
            "label": "b",
            "offset": 0,
            "slot": "2",
            "type": "t_array(t_array(t_uint256)2_storage)2_storage"
          },
          {
            "astId": 1300,
            "contract": "contracts/zkNFT.sol:zkNFT",
            "label": "c",
            "offset": 0,
            "slot": "6",
            "type": "t_array(t_uint256)2_storage"
          },
          {
            "astId": 1304,
            "contract": "contracts/zkNFT.sol:zkNFT",
            "label": "input",
            "offset": 0,
            "slot": "8",
            "type": "t_array(t_uint256)2_storage"
          }
        ],
        "numberOfBytes": "320"
      },
      "t_uint256": {
        "encoding": "inplace",
        "label": "uint256",
        "numberOfBytes": "32"
      }
    }
  }
}