{
  "_format": "hh-sol-artifact-1",
  "contractName": "NftMarketplace",
  "sourceName": "contracts/nftMarketPlace.sol",
  "abi": [
    {
      "inputs": [
        {
          "internalType": "address",
          "name": "nftAddress",
          "type": "address"
        },
        {
          "internalType": "uint256",
          "name": "tokenId",
          "type": "uint256"
        }
      ],
      "name": "AlreadyListed",
      "type": "error"
    },
    {
      "inputs": [],
      "name": "NoProceeds",
      "type": "error"
    },
    {
      "inputs": [],
      "name": "NotApprovedForMarketplace",
      "type": "error"
    },
    {
      "inputs": [
        {
          "internalType": "address",
          "name": "nftAddress",
          "type": "address"
        },
        {
          "internalType": "uint256",
          "name": "tokenId",
          "type": "uint256"
        }
      ],
      "name": "NotListed",
      "type": "error"
    },
    {
      "inputs": [],
      "name": "NotOwner",
      "type": "error"
    },
    {
      "inputs": [],
      "name": "PriceMustBeAboveZero",
      "type": "error"
    },
    {
      "inputs": [
        {
          "internalType": "address",
          "name": "nftAddress",
          "type": "address"
        },
        {
          "internalType": "uint256",
          "name": "tokenId",
          "type": "uint256"
        },
        {
          "internalType": "uint256",
          "name": "price",
          "type": "uint256"
        }
      ],
      "name": "PriceNotMet",
      "type": "error"
    },
    {
      "anonymous": false,
      "inputs": [
        {
          "indexed": false,
          "internalType": "uint256",
          "name": "buyer",
          "type": "uint256"
        },
        {
          "indexed": true,
          "internalType": "address",
          "name": "nftAddress",
          "type": "address"
        },
        {
          "indexed": true,
          "internalType": "uint256",
          "name": "tokenId",
          "type": "uint256"
        },
        {
          "indexed": false,
          "internalType": "uint256",
          "name": "price",
          "type": "uint256"
        }
      ],
      "name": "ItemBought",
      "type": "event"
    },
    {
      "anonymous": false,
      "inputs": [
        {
          "indexed": false,
          "internalType": "uint256",
          "name": "seller",
          "type": "uint256"
        },
        {
          "indexed": true,
          "internalType": "address",
          "name": "nftAddress",
          "type": "address"
        },
        {
          "indexed": true,
          "internalType": "uint256",
          "name": "tokenId",
          "type": "uint256"
        }
      ],
      "name": "ItemCanceled",
      "type": "event"
    },
    {
      "anonymous": false,
      "inputs": [
        {
          "indexed": false,
          "internalType": "uint256",
          "name": "seller",
          "type": "uint256"
        },
        {
          "indexed": true,
          "internalType": "address",
          "name": "nftAddress",
          "type": "address"
        },
        {
          "indexed": true,
          "internalType": "uint256",
          "name": "tokenId",
          "type": "uint256"
        },
        {
          "indexed": false,
          "internalType": "uint256",
          "name": "price",
          "type": "uint256"
        }
      ],
      "name": "ItemListed",
      "type": "event"
    },
    {
      "inputs": [
        {
          "internalType": "address",
          "name": "nftAddress",
          "type": "address"
        },
        {
          "internalType": "uint256",
          "name": "tokenId",
          "type": "uint256"
        },
        {
          "internalType": "uint256",
          "name": "com",
          "type": "uint256"
        }
      ],
      "name": "buyItem",
      "outputs": [],
      "stateMutability": "payable",
      "type": "function"
    },
    {
      "inputs": [
        {
          "internalType": "address",
          "name": "nftAddress",
          "type": "address"
        },
        {
          "internalType": "uint256",
          "name": "tokenId",
          "type": "uint256"
        },
        {
          "internalType": "uint256",
          "name": "com",
          "type": "uint256"
        }
      ],
      "name": "cancelListing",
      "outputs": [],
      "stateMutability": "nonpayable",
      "type": "function"
    },
    {
      "inputs": [
        {
          "internalType": "address",
          "name": "nftAddress",
          "type": "address"
        },
        {
          "internalType": "uint256",
          "name": "tokenId",
          "type": "uint256"
        }
      ],
      "name": "getListing",
      "outputs": [
        {
          "components": [
            {
              "internalType": "uint256",
              "name": "price",
              "type": "uint256"
            },
            {
              "internalType": "uint256",
              "name": "seller",
              "type": "uint256"
            }
          ],
          "internalType": "struct NftMarketplace.Listing",
          "name": "",
          "type": "tuple"
        }
      ],
      "stateMutability": "view",
      "type": "function"
    },
    {
      "inputs": [
        {
          "internalType": "uint256",
          "name": "sellerCom",
          "type": "uint256"
        }
      ],
      "name": "getProceeds",
      "outputs": [
        {
          "internalType": "uint256",
          "name": "",
          "type": "uint256"
        }
      ],
      "stateMutability": "view",
      "type": "function"
    },
    {
      "inputs": [
        {
          "internalType": "address",
          "name": "nftAddress",
          "type": "address"
        },
        {
          "internalType": "uint256",
          "name": "tokenId",
          "type": "uint256"
        },
        {
          "internalType": "uint256",
          "name": "price",
          "type": "uint256"
        },
        {
          "internalType": "uint256",
          "name": "com",
          "type": "uint256"
        }
      ],
      "name": "listItem",
      "outputs": [],
      "stateMutability": "nonpayable",
      "type": "function"
    },
    {
      "inputs": [
        {
          "internalType": "address",
          "name": "nftAddress",
          "type": "address"
        },
        {
          "internalType": "uint256",
          "name": "tokenId",
          "type": "uint256"
        },
        {
          "internalType": "uint256",
          "name": "newPrice",
          "type": "uint256"
        },
        {
          "internalType": "uint256",
          "name": "com",
          "type": "uint256"
        }
      ],
      "name": "updateListing",
      "outputs": [],
      "stateMutability": "nonpayable",
      "type": "function"
    },
    {
      "inputs": [
        {
          "internalType": "uint256",
          "name": "com",
          "type": "uint256"
        }
      ],
      "name": "withdrawProceeds",
      "outputs": [],
      "stateMutability": "nonpayable",
      "type": "function"
    }
  ],
  "bytecode": "0x608060405234801561001057600080fd5b506001600081905550611461806100286000396000f3fe6080604052600436106100705760003560e01c8063bcb143ef1161004e578063bcb143ef14610118578063d996475714610141578063d9f1aed91461016a578063f6b45c461461019357610070565b80634b3320e01461007557806381b1fc7a1461009e57806388700d1c146100db575b600080fd5b34801561008157600080fd5b5061009c60048036038101906100979190610f9c565b6101af565b005b3480156100aa57600080fd5b506100c560048036038101906100c09190610fef565b6103ed565b6040516100d2919061102b565b60405180910390f35b3480156100e757600080fd5b5061010260048036038101906100fd9190611046565b61040a565b60405161010f91906110c4565b60405180910390f35b34801561012457600080fd5b5061013f600480360381019061013a91906110df565b610489565b005b34801561014d57600080fd5b50610168600480360381019061016391906110df565b610802565b005b34801561017657600080fd5b50610191600480360381019061018c9190610fef565b610a82565b005b6101ad60048036038101906101a89190610f9c565b610b9e565b005b828282600083905060008173ffffffffffffffffffffffffffffffffffffffff16636352211e856040518263ffffffff1660e01b81526004016101f2919061102b565b602060405180830381865afa15801561020f573d6000803e3d6000fd5b505050506040513d601f19601f82011682018060405250810190610233919061115b565b905080830361026e576040517f30cd747100000000000000000000000000000000000000000000000000000000815260040160405180910390fd5b87876000600160008473ffffffffffffffffffffffffffffffffffffffff1673ffffffffffffffffffffffffffffffffffffffff1681526020019081526020016000206000838152602001908152602001600020604051806040016040529081600082015481526020016001820154815250509050600081600001511161032e5782826040517f6831488c000000000000000000000000000000000000000000000000000000008152600401610325929190611197565b60405180910390fd5b600160008c73ffffffffffffffffffffffffffffffffffffffff1673ffffffffffffffffffffffffffffffffffffffff16815260200190815260200160002060008b815260200190815260200160002060008082016000905560018201600090555050898b73ffffffffffffffffffffffffffffffffffffffff167fb407ecd2b3b64ae3cf35d828f7155fc60edd9911030438178310f6498bb0328f8b6040516103d8919061102b565b60405180910390a35050505050505050505050565b600060026000838152602001908152602001600020549050919050565b610412610ee9565b600160008473ffffffffffffffffffffffffffffffffffffffff1673ffffffffffffffffffffffffffffffffffffffff168152602001908152602001600020600083815260200190815260200160002060405180604001604052908160008201548152602001600182015481525050905092915050565b83836000600160008473ffffffffffffffffffffffffffffffffffffffff1673ffffffffffffffffffffffffffffffffffffffff168152602001908152602001600020600083815260200190815260200160002060405180604001604052908160008201548152602001600182015481525050905060008160000151111561054a5782826040517f4a5568d5000000000000000000000000000000000000000000000000000000008152600401610541929190611197565b60405180910390fd5b868685600083905060008173ffffffffffffffffffffffffffffffffffffffff16636352211e856040518263ffffffff1660e01b815260040161058d919061102b565b602060405180830381865afa1580156105aa573d6000803e3d6000fd5b505050506040513d601f19601f820116820180604052508101906105ce919061115b565b9050808303610609576040517f30cd747100000000000000000000000000000000000000000000000000000000815260040160405180910390fd5b60008a11610643576040517fe1abbfc500000000000000000000000000000000000000000000000000000000815260040160405180910390fd5b60008c90503073ffffffffffffffffffffffffffffffffffffffff168173ffffffffffffffffffffffffffffffffffffffff1663d78092528e6040518263ffffffff1660e01b8152600401610698919061102b565b602060405180830381865afa1580156106b5573d6000803e3d6000fd5b505050506040513d601f19601f820116820180604052508101906106d991906111d5565b73ffffffffffffffffffffffffffffffffffffffff1614610726576040517f4be3a2c500000000000000000000000000000000000000000000000000000000815260040160405180910390fd5b60405180604001604052808c81526020018b815250600160008f73ffffffffffffffffffffffffffffffffffffffff1673ffffffffffffffffffffffffffffffffffffffff16815260200190815260200160002060008e815260200190815260200160002060008201518160000155602082015181600101559050508b8d73ffffffffffffffffffffffffffffffffffffffff167fb7070c3c377d2fb697e5ddc72b0283eb751116d682ff1cdb579eab77bcc4013b8c8e6040516107eb929190611202565b60405180910390a350505050505050505050505050565b83836000600160008473ffffffffffffffffffffffffffffffffffffffff1673ffffffffffffffffffffffffffffffffffffffff168152602001908152602001600020600083815260200190815260200160002060405180604001604052908160008201548152602001600182015481525050905060008160000151116108c25782826040517f6831488c0000000000000000000000000000000000000000000000000000000081526004016108b9929190611197565b60405180910390fd5b6108ca610e90565b868685600083905060008173ffffffffffffffffffffffffffffffffffffffff16636352211e856040518263ffffffff1660e01b815260040161090d919061102b565b602060405180830381865afa15801561092a573d6000803e3d6000fd5b505050506040513d601f19601f8201168201806040525081019061094e919061115b565b9050808303610989576040517f30cd747100000000000000000000000000000000000000000000000000000000815260040160405180910390fd5b60008a116109c3576040517fe1abbfc500000000000000000000000000000000000000000000000000000000815260040160405180910390fd5b89600160008e73ffffffffffffffffffffffffffffffffffffffff1673ffffffffffffffffffffffffffffffffffffffff16815260200190815260200160002060008d8152602001908152602001600020600001819055508a8c73ffffffffffffffffffffffffffffffffffffffff167fb7070c3c377d2fb697e5ddc72b0283eb751116d682ff1cdb579eab77bcc4013b8b8d604051610a64929190611202565b60405180910390a35050505050610a79610edf565b50505050505050565b60006002600083815260200190815260200160002054905060008111610ad4576040517fc4d8fa8700000000000000000000000000000000000000000000000000000000815260040160405180910390fd5b6000600260008481526020019081526020016000208190555060003373ffffffffffffffffffffffffffffffffffffffff1682604051610b139061125c565b60006040518083038185875af1925050503d8060008114610b50576040519150601f19603f3d011682016040523d82523d6000602084013e610b55565b606091505b5050905080610b99576040517f08c379a0000000000000000000000000000000000000000000000000000000008152600401610b90906112ce565b60405180910390fd5b505050565b82826000600160008473ffffffffffffffffffffffffffffffffffffffff1673ffffffffffffffffffffffffffffffffffffffff16815260200190815260200160002060008381526020019081526020016000206040518060400160405290816000820154815260200160018201548152505090506000816000015111610c5e5782826040517f6831488c000000000000000000000000000000000000000000000000000000008152600401610c55929190611197565b60405180910390fd5b610c66610e90565b6000600160008873ffffffffffffffffffffffffffffffffffffffff1673ffffffffffffffffffffffffffffffffffffffff16815260200190815260200160002060008781526020019081526020016000206040518060400160405290816000820154815260200160018201548152505090508060000151341015610d2a57868682600001516040517f7c934565000000000000000000000000000000000000000000000000000000008152600401610d21939291906112ee565b60405180910390fd5b3460026000836020015181526020019081526020016000206000828254610d519190611354565b92505081905550600160008873ffffffffffffffffffffffffffffffffffffffff1673ffffffffffffffffffffffffffffffffffffffff1681526020019081526020016000206000878152602001908152602001600020600080820160009055600182016000905550508673ffffffffffffffffffffffffffffffffffffffff16638894c4468787336040518463ffffffff1660e01b8152600401610df893929190611388565b600060405180830381600087803b158015610e1257600080fd5b505af1158015610e26573d6000803e3d6000fd5b50505050858773ffffffffffffffffffffffffffffffffffffffff167f8c912d39752dc1f52744615b409bb9cd946102bab9b0e6316d0a6ea0c3a1372a878460000151604051610e77929190611202565b60405180910390a350610e88610edf565b505050505050565b600260005403610ed5576040517f08c379a0000000000000000000000000000000000000000000000000000000008152600401610ecc9061140b565b60405180910390fd5b6002600081905550565b6001600081905550565b604051806040016040528060008152602001600081525090565b600080fd5b600073ffffffffffffffffffffffffffffffffffffffff82169050919050565b6000610f3382610f08565b9050919050565b610f4381610f28565b8114610f4e57600080fd5b50565b600081359050610f6081610f3a565b92915050565b6000819050919050565b610f7981610f66565b8114610f8457600080fd5b50565b600081359050610f9681610f70565b92915050565b600080600060608486031215610fb557610fb4610f03565b5b6000610fc386828701610f51565b9350506020610fd486828701610f87565b9250506040610fe586828701610f87565b9150509250925092565b60006020828403121561100557611004610f03565b5b600061101384828501610f87565b91505092915050565b61102581610f66565b82525050565b6000602082019050611040600083018461101c565b92915050565b6000806040838503121561105d5761105c610f03565b5b600061106b85828601610f51565b925050602061107c85828601610f87565b9150509250929050565b61108f81610f66565b82525050565b6040820160008201516110ab6000850182611086565b5060208201516110be6020850182611086565b50505050565b60006040820190506110d96000830184611095565b92915050565b600080600080608085870312156110f9576110f8610f03565b5b600061110787828801610f51565b945050602061111887828801610f87565b935050604061112987828801610f87565b925050606061113a87828801610f87565b91505092959194509250565b60008151905061115581610f70565b92915050565b60006020828403121561117157611170610f03565b5b600061117f84828501611146565b91505092915050565b61119181610f28565b82525050565b60006040820190506111ac6000830185611188565b6111b9602083018461101c565b9392505050565b6000815190506111cf81610f3a565b92915050565b6000602082840312156111eb576111ea610f03565b5b60006111f9848285016111c0565b91505092915050565b6000604082019050611217600083018561101c565b611224602083018461101c565b9392505050565b600081905092915050565b50565b600061124660008361122b565b915061125182611236565b600082019050919050565b600061126782611239565b9150819050919050565b600082825260208201905092915050565b7f5472616e73666572206661696c65640000000000000000000000000000000000600082015250565b60006112b8600f83611271565b91506112c382611282565b602082019050919050565b600060208201905081810360008301526112e7816112ab565b9050919050565b60006060820190506113036000830186611188565b611310602083018561101c565b61131d604083018461101c565b949350505050565b7f4e487b7100000000000000000000000000000000000000000000000000000000600052601160045260246000fd5b600061135f82610f66565b915061136a83610f66565b925082820190508082111561138257611381611325565b5b92915050565b600060608201905061139d600083018661101c565b6113aa602083018561101c565b6113b76040830184611188565b949350505050565b7f5265656e7472616e637947756172643a207265656e7472616e742063616c6c00600082015250565b60006113f5601f83611271565b9150611400826113bf565b602082019050919050565b60006020820190508181036000830152611424816113e8565b905091905056fea2646970667358221220632b0a60e835f4036513c40d9b03f15762400cdde9cc7e73c6bf613d457568f564736f6c63430008110033",
  "linkReferences": {},
  "deployedLinkReferences": {}
}